:080000000C9485110C94000022
:100008000C9400000C9400000C9400000C94000068
:100018000C9400000C9400000C9400000C94000058
:100028000C9400000C9400000C94FB640C940000E9
:100038000C9400000C9400000C9400000C94000038
:100048000C9400000C9400000C9400000C94000028
:100058000C9400000C9400000C9400000C94000018
:100068000C9400000C9400000C9400000C94000008
:100078000C9400000C9400000C9400000C940000F8
:100088000C940000000000000000005E0000000862
:10009800060806287E287E28042A7E2A104C2C1062
:1000A8006864344A562050000000080600001824EE
:1000B80042000042241814083E081408083E0808A4
:1000C8000000B07000000808080800006060000028
:1000D80060180600003C42423C0000447E40004458
:1000E80062524C00424A4A340018147A10002E4AD0
:1000F8004A32003C4A4A300002720A0600344A4A30
:1001080034000C52523C00006C6C000000A86800DF
:10011800000008142200141414140000221408000B
:1001280004520A043C425A5A1C007C12127C007E7B
:100138004A4A34003C424224007E42423C007E4A05
:100148004A42007E0A0A02003C425234007E1010E5
:100158007E00427E4200002040403E007E1824423D
:10016800007E4040407E0408047E007E08107E0029
:100178003C42423C007E12120C003C42225C007E53
:1001880012324C00244A522402027E0202003E40EF
:10019800403E1E2040201E7E2018207E4224182427
:1001A8004202047804020062524A46007E4242003B
:1001B80000061860000042427E000804020408405D
:1001C8004040404000000608000030484878007E63
:1001D8004848300030484848003048487E00784851
:1001E80058580008FE0A080010A8A878007E0808D9
:1001F8007000487A4000008088FA00007E1028408D
:1002080000427E4000780870087000780808700086
:100218003048483000F828281000102828F80078BE
:10022800100808005058682800087E4848003840E0
:100238004078182040201838403040380048303086
:10024800480098A0A078004868584800107C4400EE
:1002580000007E00000000447C101010443810108C
:100268003844101041494C45524F4E000000454C4F
:10027800455641542E0000005448524F54542E0005
:10028800000052554444455220000000484F562073
:10029800504954000000484F56205448520000006E
:1002A8005049542054524D00000046204D4F4445BB
:1002B80020000000474541522020200000005452F1
:1002C80041494E45520000005448522E43555400AF
:1002D800000041494C45204452000000454C455619
:1002E800204452000000525544442044520000006B
:1002F8004143524F20200000504C414E45520000CF
:1003080048454C49202000004C494E45000000005B
:1003180053570000000000004D554C5449000000A0
:100328004E4F524D414C0000004C414E44494E47FF
:100338000000545241494E4552000050494C4F5418
:1003480041474500334400000000000000344400E9
:1003580000000000000049444C45310000000049FD
:10036800444C4532000000005354415254000000F0
:100378000053504545440000000043525549534539
:10038800000000544845524D414C0000313233348E
:10039800353637383941424344454647205F2D2B8F
:1003A8004142434445464748494A4B4C4D4E4F50BD
:1003B8005152535455565758595A303132333435AF
:1003C8003637383941494C2E00454C452E005448A3
:1003D800522E005255442E00484F565000484F5652
:1003E800540050495454003130302500474541529B
:1003F800005452414900544852430041494C44007A
:10040800454C4544005255444400004D41494E2056
:100418004D454E550000000000000100000000009E
:1004280000000000000146494C45000000000000A3
:1004380000000200000700000000000000000000AB
:100448000245444954000000000000000003010078
:100458000C010200000200000000000354494D4551
:100468005253000000000000040200840000000055
:100478000000000000000453595354454D0000008B
:100488000000000503003F0000000000000000001D
:100498000005494E464F000000000000000000041F
:1004A80000000000000000D3420000003F414C4122
:1004B800524D00000000000000400004AE000000A3
:1004C8000000000000000040434F4E54524F4C5370
:1004D80000000000413F049D0000000000000000F3
:1004E800000041434F4E54524153540000000088CD
:1004F800400400000000001F000000000088505069
:100508004D20464F524D41540000E941040000007F
:1005180000001E0000000000E950504D2047454EE5
:10052800455241540042880400CB070000100000E7
:1005380000000042534F554E4400000000000000E8
:10054800E3E904E200000000000000000000E34BC3
:100558004559532026205452494D00DF4204E400F7
:10056800000000000000000000DF562D4449534BF6
:1005780000000000000000E304E0000000000000AC
:10058800000000009D535449434B204D4F44450003
:10059800004300400000000000210000000000436C
:1005A800564945572043414C49425200449D40001A
:1005B8000000000000031D0000004443414C494274
:1005C800524154494F4E00004340000000000000D3
:1005D800871D000000075245534554204D4F4445A0
:1005E8004C00080001000000000000AC34000000CE
:1005F800084F50454E204D4F44454C000009070117
:10060800000000000000A5390000000953415645CC
:10061800204D4F44454C00000A080100000000002E
:10062800009B400000000A534156452041532E2E9E
:100638000000000B09010000000000007C3F0000E2
:10064800000B4552415345204D4F44454C00000A8C
:1006580001000000000000903E0000000C545950BA
:100668004500000000000000000D0002000002002C
:10067800000100000000000D4E414D450000000043
:10068800000000000E0C02000102000002101C0015
:1006980000000E4348414E4E454C53000000000FE9
:1006A8000D0245000000000000000000000F434F4D
:1006B8004E54524F4C5300000000100E022D000003
:1006C800000000000000000010464C59204D4F4427
:1006D8004553000000000F02690000000000000000
:1006E800BB0200454C43482053455400000000001D
:1006F80046000E1100000000000000000000464304
:10070800482053455400000000000000450E2C000E
:10071800000000000000000000114C434820434F37
:10072800554E54000000120045000D020000030061
:1007380000000000124C43482045504100000000D2
:100748000047114514000000000000000D0200479A
:100758004C43482044454C41590000005812454834
:10076800000000000000000D0200584C43482052D1
:1007780045564552534500004745590000000000C2
:1007880000000D0200594C43482031205245562E96
:1007980020005A0058006E02000009000000000105
:1007A8005A4C43482032205245562E20005B595857
:1007B800006F0200000900000000025B4C43482063
:1007C80033205245562E20005C5A58007002000013
:1007D8000900000000035C4C434820342052455671
:1007E8002E20005D5B580071020000090000000027
:1007F800045D4C43482035205245562E20005E5C4F
:100808005800720200000900000000055E4C4348D1
:100818002036205245562E20005F5D580073020096
:10082800000900000000065F4C434820372052456D
:10083800562E2000605E5800740200000900000077
:100848000007604C43482038205245562E2000614E
:100858005F580075020000090000000008614C4361
:10086800482039205245562E2000626058007602F2
:100878000000090000000009624C43482041205252
:1008880045562E20006361580077020000090000D9
:1008980000000A634C43482042205245562E20004F
:1008A800646258007802000009000000000B644CE4
:1008B80043482043205245562E200065635800794E
:1008C80002000009000000000C654C434820442049
:1008D8005245562E2000666458007A02000009002E
:1008E8000000000D664C43482045205245562E20F6
:1008F80000676558007B02000009000000000E67D1
:100908004C43482046205245562E20006866580021
:100918007C02000009000000000F684C4348204793
:10092800205245562E2000006758007D020000091D
:100938000000000010484C434820312044454C41F9
:100948005900490047004E025E02080000000001FD
:10095800494C434820322044454C4159004A4847B5
:10096800004F025F020800000000024A4C43482082
:10097800332044454C4159004B494700500260021E
:100988000800000000034B4C434820342044454CE9
:100998004159004C4A47005102610208000000001A
:1009A800044C4C434820352044454C4159004D4B9C
:1009B8004700520262020800000000054D4C4348FF
:1009C80020362044454C4159004E4C4700530263A1
:1009D800020800000000064E4C43482037204445DA
:1009E8004C4159004F4D4700540264020800000072
:1009F80000074F4C434820382044454C415900508B
:100A08004E470055026502080000000008504C439C
:100A18004820392044454C415900514F470056025F
:100A28006602080000000009514C43482041204458
:100A3800454C4159005250470057026702080000D0
:100A480000000A524C434820422044454C4159007A
:100A5800535147005802680208000000000B534C2D
:100A6800434820432044454C4159005452470059BB
:100A780002690208000000000C544C43482044203E
:100A880044454C415900555347005A026A02080030
:100A98000000000D554C434820452044454C415921
:100AA80000565447005B026B0208000000000E5617
:100AB8004C434820462044454C415900575547006F
:100AC8005C026C0208000000000F574C43482047A6
:100AD8002044454C415900005647005D026D02080C
:100AE80000000000102C434820544F2050504D0067
:100AF8000000130046007E0200000600000000000F
:100B08001346494C544552530000000000002C463F
:100B180024000000000000007E0200144348203139
:100B28000000000000000000150012000E022E0256
:100B380004000000000115434820320000000000B6
:100B48000000001614120010023002040000000019
:100B5800021643482033000000000000000017156B
:100B6800120012023202040000000003174348205A
:100B780034000000000000000018161200140234AF
:100B8800020400000000041843482035000000005B
:100B980000000000191712001602360204000000B7
:100BA8000005194348203600000000000000001A24
:100BB800181200180238020400000000061A434800
:100BC800203700000000000000001B1912001A0264
:100BD8003A020400000000071B43482038000000C8
:100BE80000000000001C1A12001C023C0204000055
:100BF8000000081C434820390000000000000000E5
:100C08001D1B12001E023E020400000000091D43C5
:100C180048204100000000000000001E1C120020B7
:100C280002400204000000000A1E4348204200005F
:100C38000000000000001F1D1200220242020400F2
:100C48000000000B1F434820430000000000000084
:100C580000201E12002402440204000000000C20A0
:100C6800434820440000000000000000211F12003B
:100C78002602460204000000000D214348204500DA
:100C88000000000000000022201200280248020490
:100C9800000000000E22434820460000000000002B
:100CA8000000232112002A024A0204000000000F5B
:100CB80023434820470000000000000000002212E3
:100CC800002C024C0204000000001024434820318C
:100CD8000000000000000000250013007F028002D1
:100CE8000579180000012543482032000000000063
:100CF80000000026241300820283020579180000F0
:100D08000226434820330000000000000000272589
:100D1800130085028602057918000003274348203E
:100D28003400000000000000002826130088028913
:100D38000205791800000428434820350000000007
:100D480000000000292713008B028C020579180087
:100D58000005294348203600000000000000002A52
:100D68002813008E028F020579180000062A4348CE
:100D7800203700000000000000002B29130091021A
:100D880092020579180000072B434820380000001C
:100D98000000000000002A1300940295020579184B
:100DA8000000082D535449434B0000000000000088
:100DB8002E000F31000000000000000000002E5639
:100DC8004152494F000000000000002F2D0F350050
:100DD8000000000000000000002F5357495443480A
:100DE800000000000000302E0F3900000000000055
:100DF8000000000030425554544F4E0000000000DF
:100E080000002F0F3E00000000000000000000312D
:100E180041494C45524F4E530000000032002D000E
:100E28009702980207000000000032454C455641E1
:100E3800544F520000000033312D0099029A0207E6
:100E48000000000000335448524F54544C450000F1
:100E5800000034322D009B029C02070000000000B5
:100E68003452554444455200000000000000332D20
:100E7800009D029E0207000000000035484F5620E2
:100E8800504954000000000036002E009F02A002C6
:100E980007000000000036484F5620544852000012
:100EA80000000037352E00A102A202070000000052
:100EB80000375049542054524D00000000000036BD
:100EC8002E00A302A4020700000000003947454194
:100ED8005200000000000000003A002F00A702A8FE
:100EE800020700000000003A5448522E43555400AF
:100EF800000000003B392F00AB02AC0207000000E5
:100F080000003B41494C4520445200000000003C91
:100F18003A2F00AD02AE020700000000003C454C2D
:100F2800455620445200000000003D3B2F00AF0210
:100F3800B0020700000000003D52554444204452CE
:100F48000000000000003C2F00B102B202070000C0
:100F58000000003E545241494E4552000000000036
:100F680000003000A902AA0207000000000069463C
:100F78004D4F444520434F554E540099001000BB37
:100F88000200000A000000000099464D4F44452029
:100F9800434F505900006A69109A00000000000091
:100FA800000000006A464D4F444520310000000013
:100FB800006B99106DBC0200000B00000000016B73
:100FC800464D4F4445203200000000006C6A107204
:100FD8005D0400000B00000000026C464D4F4445C4
:100FE80020330000000000006B1077FE0500000BA6
:100FF80000000000039A46524F4D00000000000018
:1010080000009B009900C80E00000A0000000000C4
:101018009B544F000000000000000000009C9A99BB
:1010280000C90E00000A00000000009C434F505900
:101038000000000000000000009B99000000000074
:101048001D00000000006D464D4F4445204E414DA7
:101058004500006E006A00BC0200000C00000000A1
:10106800006E554348205452494D2E0000006F6DC4
:101078006A7C000000000000000000006F4C43483C
:10108800204D4944444C450000706E6AAF00000092
:10109800000000000D0200704C4348204355525692
:1010A80045000000716F6A0000000000008F2000FA
:1010B8000000714D495845525300000000000000DF
:1010C800706A000000000000B52C000000AF4C431F
:1010D8004831204D4944444C4500B0006F00C502DA
:1010E80000000E0000000001B04C434832204D497A
:1010F80044444C4500B1AF6F00C70200000E000029
:10110800000002B14C434833204D4944444C45004B
:10111800B2B06F00C90200000E0000000003B24C1C
:10112800434834204D4944444C4500B3B16F00CB8B
:101138000200000E0000000004B34C434835204D67
:101148004944444C4500B4B26F00CD0200000E0083
:1011580000000005B44C434836204D4944444C45F2
:1011680000B5B36F00CF0200000E0000000006B506
:101178004C434837204D4944444C4500B6B46F00B1
:10118800D10200000E0000000007B64C434838208A
:101198004D4944444C4500B7B56F00D30200000EDA
:1011A8000000000008B74C434839204D4944444CDE
:1011B8004500B8B66F00D50200000E000000000917
:1011C800B84C434841204D4944444C4500B9B76F99
:1011D80000D70200000E000000000AB94C43484244
:1011E800204D4944444C4500BAB86F00D90200006C
:1011F8000E000000000BBA4C434843204D494444BC
:101208004C4500BBB96F00DB0200000E0000000077
:101218000CBB4C434844204D4944444C4500BCBA9F
:101228006F00DD0200000E000000000DBC4C4348BA
:1012380045204D4944444C4500BDBB6F00DF0200CA
:10124800000E000000000EBD4C434846204D4944A6
:10125800444C4500BEBC6F00E10200000E000000D7
:10126800000FBE4C434847204D4944444C450000BC
:10127800BD6F00E30200000E00000000107C545215
:10128800494D2E205354455000007D006E00BD028C
:1012980000000A00000000007D41494C45524F4EB5
:1012A80053000000007E7C6E00BE0200000D0000AE
:1012B8000000017E454C455641544F520000000045
:1012C8007F7D6E00BF0200000D00000000017F540A
:1012D80048524F54544C4500000000807E6E00C0B8
:1012E8000200000D000000000180525544444552A0
:1012F800000000000000817F6E00C10200000D00A8
:101308000000000181484F56205049540000000059
:101318000082806E00C20200000D00000000018201
:10132800484F5620544852000000000083816E0048
:10133800C30200000D0000000001835049542054EE
:1013480052494D0000000000826E00C40200000DEA
:10135800000000000184464C592054494D45520074
:1013680000008500030009020902170000000001BF
:10137800854C4956452054494D4552000086840302
:10138800000B020B02170000000001865345542091
:1013980054494D45520000008785030000000000B5
:1013A80018000000000187555044415445204C491D
:1013B800464500AC8603000000000019000000004C
:1013C80001AC4556454E5420535441525400A6870B
:1013D800030000000000140000000000A645564568
:1013E8004E542053544F50000000AC03000000003E
:1013F800001B000000000072464D4F4445204E413E
:101408004D45000073006B005D0400000C000000F7
:10141800000073554348205452494D2E0000007473
:10142800726B8D00000000000000000000744C4347
:1014380048204D4944444C45000075736BBF00007B
:1014480000000000000D0200754C4348204355522F
:10145800564500000076746B0000000000008F20E5
:10146800000000764D495845525300000000000026
:1014780000756B000000000000B52C000000BF4C98
:10148800434831204D4944444C4500C0007400662F
:101498000400000E0000000001C04C434832204DFB
:1014A8004944444C4500C1BF7400680400000E0064
:1014B80000000002C14C434833204D4944444C4588
:1014C80000C2C074006A0400000E0000000003C2DD
:1014D8004C434834204D4944444C4500C3C1740032
:1014E8006C0400000E0000000004C34C4348352083
:1014F8004D4944444C4500C4C274006E0400000EBB
:101508000000000005C44C434836204D4944444C73
:101518004500C5C37400700400000E0000000006FA
:10152800C54C434837204D4944444C4500C6C47413
:1015380000720400000E0000000007C64C43483843
:10154800204D4944444C4500C7C57400740400004C
:101558000E0000000008C74C434839204D49444458
:101568004C4500C8C67400760400000E0000000058
:1015780009C84C434841204D4944444C4500C9C71B
:101588007400780400000E000000000AC94C4348AB
:1015980042204D4944444C4500CAC874007A0400AE
:1015A800000E000000000BCA4C434843204D49443C
:1015B800444C4500CBC974007C0400000E000000B8
:1015C800000CCB4C434844204D4944444C4500CC86
:1015D800CA74007E0400000E000000000DCC4C43CD
:1015E8004845204D4944444C4500CDCB7400800407
:1015F80000000E000000000ECD4C434846204D4927
:1016080044444C4500CECC7400820400000E000017
:1016180000000FCE4C434847204D4944444C4500F8
:1016280000CD7400840400000E00000000108D54EA
:1016380052494D2E205354455000008E0073005ED1
:101648000400000A00000000008E41494C45524F3A
:101658004E53000000008F8D73005F0400000D00E2
:10166800000000018F454C455641544F5200000080
:1016780000908E7300600400000D000000000190CF
:101688005448524F54544C4500000000918F730049
:10169800610400000D0000000001915255444445CA
:1016A8005200000000000092907300620400000DD8
:1016B800000000000192484F562050495400000095
:1016C800000093917300630400000D000000000106
:1016D80093484F56205448520000000000949273DB
:1016E80000640400000D00000000019450495420DB
:1016F8005452494D00000000009373006504000037
:101708000D000000000177464D4F4445204E414DE5
:1017180045000078006C00FE0500000C0000000089
:101728000078554348205452494D2E0000007977DF
:101738006C9E00000000000000000000794C434847
:10174800204D4944444C4500007A786CCF00000095
:10175800000000000D02007A4C43482043555256C1
:10176800450000007B796C0000000000008F20001D
:1017780000007B4D4958455253000000000000000E
:101788007A6C000000000000B52C000000CF4C432C
:101798004831204D4944444C4500D00079000706A3
:1017A80000000E0000000001D04C434832204D4993
:1017B80044444C4500D1CF7900090600000E0000D2
:1017C800000002D14C434833204D4944444C450065
:1017D800D2D079000B0600000E0000000003D24CA6
:1017E800434834204D4944444C4500D3D179000D39
:1017F8000600000E0000000004D34C434835204D7D
:101808004944444C4500D4D279000F0600000E002C
:1018180000000005D44C434836204D4944444C450B
:1018280000D5D37900110600000E0000000006D58F
:101838004C434837204D4944444C4500D6D47900A0
:10184800130600000E0000000007D64C434838205D
:101858004D4944444C4500D7D57900150600000E83
:101868000000000008D74C434839204D4944444CF7
:101878004500D8D67900170600000E0000000009C0
:10188800D84C434841204D4944444C4500D9D77968
:1018980000190600000E000000000AD94C43484217
:1018A800204D4944444C4500DAD879001B06000015
:1018B8000E000000000BDA4C434843204D494444D5
:1018C8004C4500DBD979001D0600000E0000000021
:1018D8000CDB4C434844204D4944444C4500DCDA79
:1018E80079001F0600000E000000000DDC4C434884
:1018F80045204D4944444C4500DDDB790021060074
:10190800000E000000000EDD4C434846204D4944BF
:10191800444C4500DEDC7900230600000E00000080
:10192800000FDE4C434847204D4944444C450000D5
:10193800DD7900250600000E00000000109E5452BC
:10194800494D2E205354455000009F007800FF0554
:1019580000000A00000000009F41494C45524F4ECC
:101968005300000000A09E7800000600000D000053
:10197800000001A0454C455641544F52000000005C
:10198800A19F7800010600000D0000000001A1548D
:1019980048524F54544C4500000000A2A078000261
:1019A8000600000D0000000001A2525544444552B3
:1019B800000000000000A3A17800030600000D004D
:1019C80000000001A3484F56205049540000000071
:1019D80000A4A27800040600000D0000000001A485
:1019E800484F56205448520000000000A5A3780034
:1019F800050600000D0000000001A55049542054C0
:101A080052494D0000000000A47800060600000DB1
:101A18000000000001E0434C5553544552000000BB
:101A28000000E100DF00000000000F0000000000DF
:101A3800E1464F524D4154205644000000E8E0DF93
:101A48000000000000002E41000000E85644495301
:101A58004B20494E464F000000E1DF000000000027
:101A6800006142000000E2534F554E44204F4E00A3
:101A780000000000004200F907000010000000000C
:101A880000E44B4559205052455353000000E500EF
:101A9800E300FA070000110000000000E54B45597B
:101AA800205245505245535300A9E4E300FB070078
:101AB80000110000000000A95452494D2E20505238
:101AC80045535300A8E5E300FC0700001A00000096
:101AD8000000A8302D5452494D2042454550000081
:101AE800A9E300000000001C0000000000AE424115
:101AF80054544552590000000000AD003FE6000074
:101B08000000000000000000AD464C592054494D2B
:101B1800455200000000AE3FAB000000000000008E
:101B2800000000E64241545420564F4C542E000009
:101B3800A700AE0038080000120000000000A7420D
:101B48004154542043414C49425200E7E6AE00005C
:101B5800000000200000000000E7424154542041EA
:101B68004C41524D000000A7AE003A080000130097
:101B780000000000AB31204D494E2E204245455013
:101B880000AA00AD0000000000150000000000AA37
:101B98004C415354204245455000000000ABAD0075
:101BA800000000001600000000001027E803640091
:101BB8000A00010000100001100001009CD3F1FD93
:101BC80000030F2D649CB5CEE70019324B6420202A
:101BD800494E434F525245435420434C5554455265
:101BE8002053495A45202000434C55535445522010
:101BF80053495A452053455420544F20333220200E
:101C0800200020434845434B204E45572056414C21
:101C1800554520494E204D454E553A0020535953BD
:101C280054454D202D20562D4449534B0020414EFC
:101C3800442054525920414741494E2E2E2000201D
:101C4800202020202046494C4520455241534544F8
:101C58002021202020202020002020202046494C20
:101C680045205752495445204552524F5220212071
:101C7800202000204E6F20667265652073706163B6
:101C88006520666F72207461736B2020002020200D
:101C98002046696C65204E4F5420534156454400F8
:101CA8002020202020202046494C544552204544DD
:101CB800495420202020202020004348414E4E45F2
:101CC8004C3A200046494C54455220545950453A04
:101CD80020005357495443483A200056414C554533
:101CE8003A20004348414E4E454C533A205B202E43
:101CF800202E202E202E205D00202020202045444C
:101D08004954204D4F44454C204E414D45202020FC
:101D18002020004E414D453A205B00202020202005
:101D280043414C4942524154494F4E20494E464F37
:101D380020202020002020202020202043414C4922
:101D480042524154494F4E2020202020202000207C
:101D580043414C4942524154494F4E20434F4D5004
:101D68004C4554452021202000416C6C20616E6157
:101D78006C6F6720636F6E74726F6C73207265612D
:101D880064790020202020202020435552564520E9
:101D98002045444954202020202020200046204D62
:101DA8004F44453A20004C4348204E554D3A2000B8
:101DB80043555256453A2000204F464600204F4E84
:101DC800004558504F3A202020004C434820494EA7
:101DD8003A20002D3130302500202D3735250020C0
:101DE8002D35302500202D323525002020203025A6
:101DF80000202B32352500202B35302500202B37AD
:101E08003525002B313030250056414C55453A20B8
:101E180020004143544956453A20004F4E20002D9A
:101E2800002B00444553543A20202000534F55526C
:101E380043453A200055434820004C434820004D74
:101E4800495820253A2000464958200020202020C3
:101E58002020204D495845522020454449542020EF
:101E68002020202020004348003C4D494E20003EC1
:101E78004D415820004E4F20545950205357495433
:101E88002E204420534F55522050524F432E002DA0
:101E98002D2D2D2D002D2D202D2D2D202D2D2D2DB1
:101EA8002D202D202D2D2D2D202D2D2D2D2D0020BB
:101EB80052455345542043555252454E54204D4F98
:101EC80044454C20202020200020746F2063616E40
:101ED80063656C207072657373204D454E552020E4
:101EE800203E00746F2070726F6365737320707288
:101EF800657373202D2045584954203E002020202A
:101F080020204F50454E204D4F44454C2046494CCB
:101F1800452020202020004E4E2054595045202096
:101F2800204D4F44454C4E414D452053495A45207C
:101F3800002020202020562D4449534B2020455274
:101F4800524F522021202020202000202020204EE7
:101F58004F204652454520205350414345202120DB
:101F6800202020200020202064656C657465206F87
:101F78006C64206D6F64656C732020202020002025
:101F880020206F7220666F726D617420562D44692F
:101F9800736B202020202020002020204552415310
:101FA8004520204D4F44454C2041532E2E202020C3
:101FB800202000202020202053415645204D4F440A
:101FC800454C2041532E2E20202020200020202068
:101FD8002020202046494C45205341564544202185
:101FE8002020202020200020202053415645204337
:101FF800555252454E54204D4F44454C20202020E8
:1020080000746F2070726F636573732070726573EC
:1020180073202D204D454E55203E0020746F2063BF
:10202800616E63656C2070726573732045584954FE
:102038002020203E0020202020464F524D41542091
:10204800562D4449534B203F20202020202000417A
:102058006C6C2064617461206D75737420626520F6
:1020680064656C657465642100202020562D444900
:10207800534B2020464F524D415454454420212073
:102088002020002046696C65206F70657261746954
:102098006F6E7320656E61626C656400202020207D
:1020A800204D4F44454C20204D4F44494649454416
:1020B8002020202020002020202020202020202038
:1020C8002020202020202020202020202020200028
:1020D80020202020202020202020202020202020F8
:1020E800202053415645202D3E002053415645207F
:1020F8004348414E47455320544F20562D44495399
:102108004B3F20002020202020202020202020209D
:102118002020202043414E43454C202D3E002020C6
:102128002020202020562D4449534B2020494E463C
:102138004F20202020202000562D4469736B2073E7
:102148006563746F7220636F6C3A20002066726555
:10215800652073706163653A2000202020562D4366
:102168004F444552202076657220302E393962203E
:1021780020202000617574686F723A205669746176
:102188006C79205620476F7262756B6F76002062FB
:1021980075696C643A2032333431202031342E3161
:1021A800302E323031322000206669727374207507
:1021B80073652061742032312E30372E3230313041
:1021C8002000202020666F7220737570706F727403
:1021D800206D61696C20746F20202000202020670A
:1021E8006F7262756B6F764079616E6465782E7276
:1021F8007520202020004E4F524D414C005245562C
:102208004552534500205600202020202020202021
:102218005741524E494E472021202020202020207F
:102228002000202055534520544849532056414CFE
:102238005545204E4F5420464F5220002020202044
:10224800203353204C49504F204241545445525951
:102258002020202020004D414E55414C00203E3288
:1022680030250055534520435552520041444420DF
:1022780054494D4500203C313025004E4F204556ED
:10228800454E54004245455026504155534500435C
:102298004F505900504F534954495645004E4547F1
:1022A800415449564500202020562D434F4445525D
:1022B80020207665722E20302E39396220202000A9
:1022C8005448524354005255442E4400454C452E20
:1022D800440054524E2E00474541520041494C2E6D
:1022E8004400484F565000484F56540050495454E3
:1022F800000001002D4E414E00000100EA0EFA22B6
:102308000000F894EE27ECBBF1E0F5BFE5BFE093E1
:102318006C00F8E1F1BDE1BD8DE0A2E0BB27ED93D3
:102328008A95E9F780E090E1A0E0B1E0ED930197AC
:10233800E9F7E2E0F3E285919591009761F0A591C4
:10234800B59105901590BF01F00105900D92019788
:10235800E1F7FB01F0CFEFEFEDBFE0E1EEBFC0E04A
:10236800D2E00C945B6CE5B3E57EE5BBEFEFEABB2E
:10237800E881EBBBAD9AAD98A99A7FC6E5B3ED7E2F
:10238800E5BBAB9AEFEFEABBE881EBBBAD9AAD9842
:10239800A99A73C61A930A9310E0183000F5E12F32
:1023A800E06BEA93E0DFE0E1EA93DDDFE4E0EA9363
:1023B800DADF00E0003888F4E12FF0E00E940272D2
:1023C8000E940072EC53F54FDF01EE27A00FBE1FED
:1023D800EC91EA93D3DF0F5FEDCF1F5FDECF7CC4B4
:1023E8001A930A9300E00830A0F410E0103878F44B
:1023F800E02FF0E00E9402720E940072EC53F54F49
:10240800DF01EE27A10FBE1FEC931F5FEFCF0F5F19
:10241800EACF62C4E5B3E470E5BB85E08A95F1F7DD
:1024280085E08A95F1F7AA9A80E797E10197F1F795
:10243800E2EEEA9398DFEEEAEA9395DFE1EAEA93BF
:1024480092DFE6EAEA938FDFE4EAEA938CDFE2EAD6
:10245800EA9389DFE0ECEA9386DFEFE2EA9383DF31
:10246800E5E2EA9380DFE1E8EA937DDFE2E2EA93DE
:102478007ADFEFEAEA9377DFB3DF8CDF0895E1E8EC
:10248800EA9371DFE881EA936EDFF7C5E981EE5FD1
:102498004E2E588055C51A93AA81AF3718F0A1322D
:1024A80008F44EC010E0153010F00C94A412A98165
:1024B800A23019F4E0912708E983E981E030E1F4DA
:1024C800E52DF0E00E9402720E940072EC53F54F75
:1024D800DF01E42DF0E0EA0FFB1FBF01EA81E052C3
:1024E800A5E0EA9FF001DF01E12FF0E0EA0FFB1F12
:1024F800E457FF4FE4911FC0E130F9F4E52DF0E017
:102508000E9402720E940072EC53F54FDF01E42D25
:10251800F0E0EA0FFB1FBF01EA81E052A5E0EA9F65
:10252800F001DF01E12FF0E0EA0FFB1FE457FF4F56
:10253800A491EFEFEA1BDB01EC9343941F5FB3CF49
:102548001881D1C5E52DF0E00E9402720E94007248
:10255800EC53F54FDF01E42DF0E0EA0FFB1FA881F3
:10256800A08343948AC5E981FA81E491E03069F057
:10257800E981FA81E491EA93E981EA938CDFE981C0
:10258800FA813196E983FA83EECFADC50E941173C3
:1025980000E0342DED81E150A5E0EA9FF0010E0F37
:1025A80010E0ED811E17C8F4E32FE00F4E2EAE8128
:1025B800BF81EAE0F0E00E949E72E05DEA93ED815F
:1025C800EA9369DF0550AE81BF81EAE0F0E00E943E
:1025D8005E72EE83FF831F5FE4CFED81A5E0EA9F83
:1025E800F001E30F4E2E25C00E941173042D352DE6
:1025F800ED81E50DE1505E2E10E0ED811E17B8F477
:10260800402EAE81BF81EAE0F0E00E949E72E05D5C
:10261800EA93ED81EA933FDF5A94AE81BF81EAE005
:10262800F0E00E945E72EE83FF831F5FE6CF402ECC
:10263800532E0E941873289608951A930A93AC8112
:10264800A03818F4AB81A03408F032C0EB81E695CD
:10265800E695E6951E2FEB81E770A1E00E94F871E0
:102668000E2FEA81E03081F0E12FF0E00E94027243
:102678000E940072EC53F54FDF01EC81F0E0AE0FE1
:10268800BF1FEC91E02B13C0E12FF0E00E94027213
:102698000E940072EC53F54FDF01EC81F0E0EA0F85
:1026A800FB1F0F01A081E02FE095EA23D001EC93F6
:1026B800198108818CC20E94117310E0153010F046
:1026C8000C94B913EC81E052A5E0EA9FF001DF0118
:1026D800E12FF0E0EA0FFB1FE457FF4F349100E0D1
:1026E800083010F00C94B713E32FE170E130C1F516
:1026F800E12FEE0FAE81EA0FEA93E02FEE0FAE81E5
:10270800EA0FEA93E1E0EA9398DFE12FEE0FAE815A
:10271800EA0FEF5FEA93E02FEE0FAE81EA0FEA933C
:10272800E1E0EA938ADFE12FEE0FAE81EA0FEA9348
:10273800E02FEE0FAE81EA0FEF5FEA93E1E0EA9354
:102748007CDFE12FEE0FAE81EA0FEF5FEA93E02F17
:10275800EE0FAE81EA0FEF5FEA93E1E0EA936DDFF7
:1027680036950F5FBDCF1F5FA9CF0E9418732796BC
:1027780008950E94117330E0EC81E150AAE0EA9FCD
:10278800F0013E0F10E0EC811E17D0F4E885E30F4E
:102798000E2F0A93E885EA93AF81B885EAE0F0E066
:1027A8000E949E72E05DEA9386DF3A50AD81BE8159
:1027B800EAE0F0E00E945E72ED83FE831F5FE3CFE4
:1027C800C3C00E940F7310E0153010F00C947E14F3
:1027D800EE81E052A5E0EA9FF001DF01E12FF0E091
:1027E800EA0FFB1FE457FF4F3491A3E01A9F202DF7
:1027F80000E0083010F00C947C14E32FE170E13015
:1028080011F00C947914A3E00A9F502DE22FA885AB
:10281800EA0FEA93E52FA885EA0FEA93E1E0EA9345
:102828000CDFE22FA885EA0FEF5FEA93E52FA88572
:10283800EA0FEA93E1E0EA9300DFE22FA885EA0FC6
:10284800EE5FEA93E52FA885EA0FEA93E1E0EA93C1
:10285800F4DEE22FA885EA0FEA93E52FA885EA0FB0
:10286800EF5FEA93E1E0EA93E8DEE22FA885EA0F5A
:10287800EF5FEA93E52FA885EA0FEF5FEA93E1E0BF
:10288800EA93DBDEE22FA885EA0FEE5FEA93E52FF5
:10289800A885EA0FEF5FEA93E1E0EA93CEDEE22F44
:1028A800A885EA0FEA93E52FA885EA0FEE5FEA9379
:1028B800E1E0EA93C2DEE22FA885EA0FEF5FEA9330
:1028C800E52FA885EA0FEE5FEA93E1E0EA93B5DE2B
:1028D800E22FA885EA0FEE5FEA93E52FA885EA0FB5
:1028E800EE5FEA93E1E0EA93A8DE36950F5F81CFC9
:1028F8001F5F6ACF0E94167329C00E94117330E0CF
:10290800EC81E150AFE0EA9FF0013E0F10E0EC816E
:102918001E17D0F4E885E30F0E2F0A93E885EA9393
:10292800AF81B885EAE0F0E00E949E72E05DEA932C
:1029380048DF3F50AD81BE81EAE0F0E00E945E7260
:10294800ED83FE831F5FE3CF0E94187329960895D5
:1029580026970E940F73AE85EC85EA1B4E2F5527EC
:10296800AF85ED85EA1B2E2F332711E055233AF466
:10297800FA010E94F471AF01EFEFFFEF02C0E1E04E
:10298800F0E0E887F98733233AF4F9010E94F471FB
:102998009F01EFEFFFEF02C0E1E0F0E0EA87FB877D
:1029A800220F331F440F551FEF85EA93EF85EA93F3
:1029B8001A9343DE4217530794F5F901F595E79505
:1029C800DF01FA01EA1BFB0BEE83FF83ED85AF8580
:1029D800EA1721F1AF81AA2352F0E885AE85EA0F04
:1029E800EE87EE81FF81E21BF30BEE83FF83EA851E
:1029F800AF85EA0FEF87FA01AE81BF81EA0FFB1FAF
:102A0800EE83FF83103011F010E001C011E0EF8574
:102A1800EA93EF85EA931A9310DED8CF31C0FA0112
:102A2800F595E795DF01F901EA1BFB0BEE83FF83C0
:102A3800EC85AE85EA1721F1AF81AA2352F0EA8529
:102A4800AF85EA0FEF87EE81FF81E41BF50BEE837C
:102A5800FF83E885AE85EA0FEE87F901AE81BF8175
:102A6800EA0FFB1FEE83FF83103011F010E001C066
:102A780011E0EF85EA93EF85EA931A93DEDDD8CF6C
:102A88000E9416736096089523970E940F73AD8570
:102A9800EB85EA1B1E2FAC85EA85EA1B0E2F10304A
:102AA8001CF0188731E005C0AB85ED85EA1BE88787
:102AB8003FEF00301CF00F8321E005C0AA85EC85AC
:102AC800EA1BEF832FEF5D854C85EF81A885AE1754
:102AD80068F1E885EE83AE81A13038F1013074F0F9
:102AE800AD85E52FEA1BAF81EA9FF001AE2FE8859F
:102AF8000E944B72AC85EA0F4E2F0DC0AD85E52FB5
:102B0800EA1BAF81EA9FF001AE2FE8850E944B7265
:102B1800AC85AE1B4A2F5A934A93EB85EA938DDD19
:102B2800530FEE81E150EE83D6CF21C0EF81EE83C3
:102B3800AE81A130E0F0013024F0AC85E42FEA1B2F
:102B480002C0EC85E41BA885EA9FF001AE2FEF8157
:102B58000E944B72AD85EA0F5E2F5A934A93EB851C
:102B6800EA936BDD420FEE81E150EE83E1CF0E94E4
:102B780016732E960895EC81EA93EC81EA93EC8122
:102B8800EA93EE81EA93EC81EA937EDFEC81EA93A3
:102B9800EA81EA93EC81EA93EC81EA93EC81EA9387
:102BA80073DFEC81EA93EC81EA93EE81EA93EC819E
:102BB800EA93EC81EA9368DFEA81EA93EC81EA938D
:102BC800EC81EA93EC81EA93EC81EA935DDF259648
:102BD80008951A930A93AEE4B0E00E94D772E031E8
:102BE80039F0E03229F0E03319F0E03409F04EC052
:102BF80000E010E0AEE4B0E00E94D772F0E0A0EA96
:102C0800B7E00E9471720E171F0760F5AEE4B0E0DE
:102C18000E94D772F0E0A0EAB7E00E947172319783
:102C2800E017F10771F0AEE4B0E00E94D772D80166
:102C3800F0E00E941872E15BFF4FDF01E02FEF5FC9
:102C48000CC0AEE4B0E00E94D772D801F0E00E9458
:102C58001872E15BFF4FDF01EFEF0E94EB720F5F2D
:102C68001F4FC8CF00E010E00031E0E01E0750F42D
:102C7800AFEEB7E0A00FB11FEFEF0E94EB720F5F4E
:102C88001F4FF2CFAFEFB7E0E0E024C0E6EDFBE185
:102C9800E0933C08F0933D08E0EFFBE1E0933E0849
:102CA800F0933F08EAE0FCE1E0934008F093410824
:102CB800E4E2FCE1E0934208F0934308E5E3FCE139
:102CC800E0934408F0934508E1E0E0934708AEE458
:102CD800B0E0E0E20E94EB720991199108951A930D
:102CE800E1E0AE2EA981A03110F011E018C0A98151
:102CF800B0E0A151B84F0E94D772EF3F11F412E033
:102D08000EC0B980A981B0E0A151B84F0E94D77216
:102D18006E2E7724E1E0F0E04F0110E0AA24E12FC5
:102D28000EC11A9310E0AA20A9F5AEE4B0E00E9403
:102D3800D772D301F0E00E941872E80DF91DE15B2B
:102D4800FF4FDF010E94D7721E2FF40131964F0109
:102D5800AEE4B0E00E94D772D401F0E0EA17FB07B6
:102D6800C9F4E1E0F0E04F01AEE4B0E00E94D772B0
:102D7800D301F0E00E941872E15BFF4FDF010E946F
:102D8800D7726E2E7724EFEFF0E0E615F70511F411
:102D9800E1E0AE2EE12F199108951A93E1E0AE2EED
:102DA800A981A03110F011E047C0AFEFB7E00E9451
:102DB800D772EF3F11F40C941F17E981F0E0E1514D
:102DC800F84F0F01AFEFB7E00E94D772D0010E9411
:102DD800EB72AFEFB7E00E94D7726E2E7724AFEF99
:102DE800B7E00E94D7720E2E1124AEE4B0E00E9424
:102DF800D772F0E0D0010E941872E15BFF4FDF014B
:102E08000E94D772AFEFB7E00E94EB72AEE4B0E079
:102E18000E94D772F0E0D3010E941872E15BFF4F65
:102E2800DF01EFEF0E94EB72B980E1E0F0E04F01C3
:102E380010E0AA2401C012E0E12F81C01A93A981F1
:102E4800B0E0A151B84F0E94D772EF3F11F40C9433
:102E5800A317AFEFB7E00E94D7721E2F1F3F11F4E0
:102E68000C946D17012E1124AEE4B0E00E94D772C5
:102E7800F0E0D0010E941872E15BFF4FDF010E9471
:102E8800D772EF3F89F0012E1124AEE4B0E00E9422
:102E9800D772F0E0D0010E941872E15BFF4FDF01AA
:102EA8000E94D7721E2FDECF012E1124AEE4B0E0AF
:102EB8000E94D772F0E0D0010E941872E15BFF4FC8
:102EC8000F01A981B0E0A151B84F0E94D772D0017B
:102ED80008C0A981B0E0A151B84F0E94D772AFEFE6
:102EE800B7E00E94EB72A981B0E0A151B84FEFEFB3
:102EF8000E94EB72E0914708E03009F5EFEEFBE144
:102F0800E0933E08F0933F08E7E4FCE1E0933C08D7
:102F1800F0933D08EEEEFBE1E0934008F0934108A2
:102F2800EEEEFBE1E0934208F0934308EEEEFBE19E
:102F3800E0934408F0934508E1E0E09347081881DE
:102F480022960895AA2011F00C944118AEE4B0E03E
:102F58000E94D772D301F0E00E941872E80DF91DA3
:102F6800E15BFF4FDF010E94D772AE2FE881EA17BD
:102F780081F0AEE4B0E00E94D772D301F0E00E9485
:102F88001872E80DF91DE15BFF4FDF01E8810E942F
:102F9800EB72F40131964F01AEE4B0E00E94D772B3
:102FA800D401F0E0EA17FB0711F00C944118E1E0B6
:102FB800F0E04F01AFEFB7E00E94D772EF3FC1F1E9
:102FC800AEE4B0E00E94D772F0E0D3010E9418721C
:102FD800E15BFF4F0F01AFEFB7E00E94D772D0015E
:102FE8000E94EB72AFEFB7E00E94D7726E2E772483
:102FF800AEE4B0E00E94D772F0E0D3010E941872EC
:10300800E15BFF4FDF010E94D772AFEFB7E00E948C
:10301800EB72AEE4B0E00E94D772F0E0D3010E94F8
:103028001872E15BFF4FDF01EFEF0E94EB7225C0E2
:10303800E1E0AE2EE1E6FCE1E0933C08F0933D08C8
:10304800EBE7FCE1E0933E08F0933F08E5E9FCE19B
:10305800E0934008F0934108EEEEFBE1E09342086C
:10306800F0934308EEEEFBE1E0934408F093450843
:10307800E1E0E0934708BA92E1DE219608951A93B9
:103088000A93AA81B0E0A151B84F0E94D7720E2FBF
:103098000F3F29F111E0002E1124AEE4B0E00E94A8
:1030A800D772F0E0D0010E941872E15BFF4FDF0198
:1030B8000E94D772EF3F91F0002E1124AEE4B0E0E9
:1030C8000E94D772F0E0D0010E941872E15BFF4FB6
:1030D800DF010E94D7720E2F1F5FDDCF01C010E005
:1030E800E12F198108812396089526970E940F736E
:1030F800E091CA0EE03071F4E0E0E093CB0EE0938B
:10310800CC0EE1E0E093CA0EE1E0F0E0E093CD0EF2
:10311800F093CE0EE0E0EA93EA93B8D9E8EAFCE14E
:10312800FA93EA93E1E0EA931EDAEC2DE4521E2FBB
:10313800AFE7B2E0E12FF0E0BD01A3E0B0E00E940C
:103148001872DB01AE0FBF1F0C91AFE7B2E0E12FA1
:10315800F0E0BD01A3E0B0E00E941872DB01AE0F01
:10316800BF1F11964D915C91E0E0EA93E2E0EA938B
:103178008DD9E2ECFCE1FA93EA93E0E0EA93F3D923
:10318800E12FF0E0EC56FC4FE491EA93E0E0EA939B
:1031980082D9E091CB0EE03011F432E001C030E08A
:1031A800E0E0EA93E3E0EA9371D9ECECFCE1FA930E
:1031B800EA93E0E0EA93D7D9E02FF0E00E940272A8
:1031C800E05FFC4FFA93EA933A93CDD9E02FE130D0
:1031D80011F00C944119A091CB0EA13011F432E0FA
:1031E80001C030E0FA01EF835E83E0E0EA93E4E0B7
:1031F800EA934CD9EAEDFCE1FA93EA93E0E0EA932A
:10320800B2D9EF81AAE0EA9FF001E459FD4FFA93A1
:10321800EA933A93A8D9A091CB0EA23011F432E0E8
:1032280001C030E0E0E0EA93E5E0EA932FD9E3EE6D
:10323800FCE1FA93EA93E0E0EA9395D9AE81A030F5
:1032480044F4EDE2EA933A9326D9EE81E195EE83D0
:1032580004C0EBE2EA933A931ED9EE81F0E0E7FD71
:10326800FFEFFA93EA93E3E0EA933A938FD9E5E222
:10327800EA933A9310D95E8382C0E23011F00C943D
:10328800C319E0E0EA93E4E0EA9300D9EBEEFCE14D
:10329800FA93EA93E0E0EA9366D9ECE3EA93E4E090
:1032A800EA93F4D820E0E0E0EA87EB87AA85BB85BB
:1032B8005097D8F4FA01E170E13079F4EA85FB859A
:1032C800EC56FC4FE491EA93E1E0EA93E4D8E0E2BB
:1032D800EA93E0E0EA93DFD82F5F56954795EA85B1
:1032E800FB853196EA87FB87E1CFE0E0E887E9874D
:1032F800A885B985129710F00C94C319E8E2EA93EF
:10330800E985EA5FEA93C2D8E0E0EA87EB87AA8515
:10331800BB85189770F5A885B985E8E00E944072CA
:10332800AA85BB85AE0FBF1FE091CC0EF0E0EA176F
:10333800FB0721F4A091CB0EA13009F002C032E0C6
:1033480001C030E0A885B985E8E00E944072AA85EE
:10335800BB85EA0FFB1FEC56FC4FE491EA933A93C6
:103368009AD843944394EA85FB853196EA87FB878C
:10337800CECFE885F9853196E887F987B9CF0E94DD
:103388002E643E2FE32FEE3E51F4A091CB0EA130D8
:1033980028F0E091CB0EE150E093CB0E39C2E63F26
:1033A800C9F4E02FE13051F4A091CB0EA23028F4FB
:1033B800E091CB0EEF5FE093CB0E0BC0E23049F407
:1033C800A091CB0EA13028F4E091CB0EEF5FE093F3
:1033D800CB0E1EC2EA3FA9F5023011F4243008F0E2
:1033E8001FC0AFE7B2E0E12FF0E0BD01A3E0B0E01D
:1033F8000E941872DB01AE0FBF1F1196E0E0F0E0EB
:10340800ED93FC93AFE7B2E0E12FF0E0BD01A3E05C
:10341800B0E00E941872DB01AE0FBF1FE0E0EC9332
:10342800E0E0E093CB0EE093CC0EE093CA0EE0937D
:10343800CD0EE093CE0E0E944B64E0E0E093C50E03
:10344800E7C1EC3F11F00C94951AE1E0E093B50A5E
:103458000E944B64A091CB0EA13010F40C94941AE6
:10346800E02FE13009F45CC0E23011F00C94941ABA
:10347800AFE7B2E0E12FF0E0BD01A3E0B0E00E94C9
:103488001872DB01AE0FBF1F11960E94BB72A0918C
:10349800CD0EB091CE0EEA23FB23EA87FB87AA85DF
:1034A800BB850E940673E0F4AFE7B2E0E12FF0E0DD
:1034B800BD01A3E0B0E00E941872DF01E60FF71F1C
:1034C80031960F01FD01DB01AE0FBF1F11960E945F
:1034D800BB72A091CD0EB091CE0EEA1BFB0B1DC0A6
:1034E8002430F0F4AFE7B2E0E12FF0E0BD01A3E053
:1034F800B0E00E941872DF01E60FF71F31960F0146
:10350800FD01DB01AE0FBF1F11960E94BB72A09197
:10351800CD0EB091CE0EEA0FFB1FD001ED93FC93B8
:1035280077C1EE3D11F00C94511BE1E0E093B50A30
:10353800E091CB0EE03011F00C94E61A013010F453
:103548000C94E51AAFE7B2E0E12FF0E0BD01A3E08B
:10355800B0E00E941872DB01AE0FBF1FEC91E15082
:10356800EC93AFE7B2E0E12FF0E0BD01A3E0B0E0FB
:103578000E941872DB01AE0FBF1FAC91A13081F41D
:10358800AFE7B2E0E12FF0E0BD01A3E0B0E00E94B8
:103598001872DB01AE0FBF1F1196E8E0F0E00FC014
:1035A800AFE7B2E0E12FF0E0BD01A3E0B0E00E9498
:1035B8001872DB01AE0FBF1F1196E0E0F0E0ED934B
:1035C800FC936AC0E02FE13011F00C943A1BA091F3
:1035D800CB0EA13019F5AF81AD3000F5EF81EF5F6B
:1035E800EF83AFE7B2E0E12FF0E0BD01A3E0B0E088
:1035F8000E941872E60FF71F3196BF01AE81B0E046
:10360800A7FDBFEFE0E0F1E00E944672DF01EF8125
:10361800F0E0EA0FFB1FDB01ED93FC93A091CB0ECA
:10362800A23019F5AE81AD3704F5EE81EF5FEE8378
:10363800AFE7B2E0E12FF0E0BD01A3E0B0E00E9407
:103648001872E60FF71F3196BF01AE81B0E0A7FDF3
:10365800BFEFE0E0F1E00E944672DF01EF81F0E0A9
:10366800EA0FFB1FDB01ED93FC9316C0E230A1F4D7
:10367800A091CC0EAF3080F4E091CC0EEF5FE093D8
:10368800CC0EA091CD0EB091CE0EE2E00E94407219
:10369800E093CD0EF093CE0EBBC0EE3B11F00C9430
:1036A8000C1CE1E0E093B50AE091CB0EE03011F09C
:1036B8000C94A21B023010F00C94A11BAFE7B2E0EF
:1036C800E12FF0E0BD01A3E0B0E00E941872DB0139
:1036D800AE0FBF1FEC91EF5FEC93AFE7B2E0E12FC5
:1036E800F0E0BD01A3E0B0E00E941872DB01AE0F6C
:1036F800BF1FAC91A13081F4AFE7B2E0E12FF0E059
:10370800BD01A3E0B0E00E941872DB01AE0FBF1F3D
:103718001196E8E0F0E00FC0AFE7B2E0E12FF0E08B
:10372800BD01A3E0B0E00E941872DB01AE0FBF1F1D
:103738001196E0E0F0E0ED93FC936AC0E02FE130F1
:1037480011F00C94F71BA091CB0EA13019F5AF81A5
:10375800A83000F1EF81E150EF83AFE7B2E0E12F4D
:10376800F0E0BD01A3E0B0E00E941872E60FF71F79
:103778003196BF01AE81B0E0A7FDBFEFE0E0F1E018
:103788000E944672DF01EF81F0E0EA0FFB1FDB01C8
:10379800ED93FC93A091CB0EA23021F5AE81E3E826
:1037A800EA1704F5EE81E150EE83AFE7B2E0E12FCE
:1037B800F0E0BD01A3E0B0E00E941872E60FF71F29
:1037C8003196BF01AE81B0E0A7FDBFEFE0E0F1E0C8
:1037D8000E944672DF01EF81F0E0EA0FFB1FDB0178
:1037E800ED93FC9315C0E23099F4A091CC0EA13072
:1037F80078F0E091CC0EE150E093CC0EE091CD0E44
:10380800F091CE0EF695E795E093CD0EF093CE0E9F
:103818000E9416732C9608950E940F73E091CA0EA9
:10382800E03041F4E0E0E093CB0EE093CC0EE1E031
:10383800E093CA0EE0E0EA93EA930E944A12E1E0BC
:10384800FDE1FA93EA93E1E0EA930E94B712EAE015
:10385800EA93E2E0EA930E944A12EBE1FDE1FA936F
:10386800EA93E0E0EA930E94B71200E010E0083023
:10387800E0E01E07B0F4E091CB0ED801F0E0EA17C3
:10388800FB0711F452E001C050E0E1E0F2E0E00F84
:10389800F11FE081EA935A930E944F120F5F1F4F66
:1038A800E6CFEDE5EA93E0E0EA930E944F1200E0EC
:1038B80010E00430E0E01E0798F5EDE1EA93E02F10
:1038C800EC5FEA930E944A1220E030E02A30E0E000
:1038D8003E0718F5AAE0A09FF001A19FF00DE20FA6
:1038E800F31FA091CC0EB0E0EA17FB0711F451E0EA
:1038F80001C050E0AAE0A09FF001A19FF00DE20FE7
:10390800F31FEC55FC4FE491EA935A930E944F122F
:10391800439443942F5F3F4FD9CF0F5F1F4FC9CFB9
:103928000E942E645E2FE52FEE3E61F4A091CB0E2F
:10393800A13020F0E091CB0EE15001C0E7E0E09328
:10394800CB0E59C0E63F61F4A091CB0EA73020F40E
:10395800E091CB0EEF5F01C0E0E0E093CB0E4BC0EF
:10396800EA3F69F4E0E0E093CB0EE093CC0EE093FD
:10397800CA0E0E944B64E0E0E093C50E3CC0EC3FE9
:10398800F9F4A1E0B2E0E091CB0EF0E0AE0FBF1F7A
:10399800E091CC0EF0E0EC55FC4FE491EC93A09153
:1039A800CB0EA73020F4E091CB0EEF5F01C0E0E032
:1039B800E093CB0EE1E0E093B50A0E944B641BC094
:1039C800EE3D61F4A091CC0EA73220F4E091CC0E2C
:1039D800EF5F01C0E0E0E093CC0E0DC0EE3B59F480
:1039E800A091CC0EA13020F0E091CC0EE15001C0A6
:1039F800E7E2E093CC0E0E941673269608951A9378
:103A08000A93E0E0EA93EA930E944A12E3E2FDE1B6
:103A1800FA93EA93E1E0EA930E94B71200E010E01B
:103A28000730E0E01E0710F00C94761DE0E0EA9302
:103A3800E02FEF5FEA930E944A12AAE0A09FF001EC
:103A4800A19FF00DE459FD4FFA93EA93E0E0EA9361
:103A58000E94B712E0E2EA93E0E0EA930E944F1274
:103A6800F801ACEDB7E0EE0FFF1FAE0FBF1F0E94CD
:103A7800BB72FA93EA93E4E0EA93E0E0EA930E94E7
:103A8800CA12E0E2EA93E0E0EA930E944F12F801DA
:103A9800AEECB7E0EE0FFF1FAE0FBF1F0E94BB7268
:103AA800FA93EA93E4E0EA93E0E0EA930E94CA1208
:103AB800E0E2EA93E0E0EA930E944F12F801AAEEEE
:103AC800B7E0EE0FFF1FAE0FBF1F0E94BB72FA9345
:103AD800EA93E4E0EA93E0E0EA930E94CA120F5FF7
:103AE8001F4F9ECF0E942E640E2F1127F801EA3F28
:103AF800A0E0FA0729F40E944B64E0E0E093C50EC9
:103B080009911991089524970E940F73E0E0EA93B0
:103B1800EA930E944A12EDE3FDE1FA93EA93E1E0A9
:103B2800EA930E94B712E0E0EA93EAE0EA93EFE74B
:103B3800EA93EAE0EA93E1E0EA930E944815E0910B
:103B4800CF0EE030A1F510E0173070F5E12FACEDA5
:103B5800B7E0F0E0EE0FFF1FEA0FFB1F0F01E12FA8
:103B6800ADEFB7E0F0E0EE0FFF1FAE0FBF1F0E94F2
:103B7800BB72D001ED93FC93E12FAAEEB7E0F0E021
:103B8800EE0FFF1FEA0FFB1F0F01E12FADEFB7E0AC
:103B9800F0E0EE0FFF1FAE0FBF1F0E94BB72D001F7
:103BA800ED93FC931F5FD0CFE1E0E093CF0EA0919F
:103BB800CF0EA13011F00C94142020E010E0173043
:103BC80010F00C94361FE12FACEDB7E0F0E0EE0FEB
:103BD800FF1FAE0FBF1F0D901C90E12FADEFB7E098
:103BE800F0E0EE0FFF1FAE0FBF1F0E94BB72E01583
:103BF800F105B0F4E12FACEDB7E0F0E0EE0FFF1FF8
:103C0800EA0FFB1F0F01E12FADEFB7E0F0E0EE0F79
:103C1800FF1FAE0FBF1F0E94BB72D001ED93FC9334
:103C2800E12FAAEEB7E0F0E0EE0FFF1FAE0FBF1FC7
:103C38000D901C90E12FADEFB7E0F0E0EE0FFF1F05
:103C4800AE0FBF1F0E94BB720E161F06B0F4E12F05
:103C5800AAEEB7E0F0E0EE0FFF1FEA0FFB1F0F011F
:103C6800E12FADEFB7E0F0E0EE0FFF1FAE0FBF1F83
:103C78000E94BB72D001ED93FC93A1E11A9FF00161
:103C8800DF01EF5FEA93ECE0EA93FD01E65FEA9378
:103C9800EAE2EA93E1E0EA930E94BF15A1E11A9FE4
:103CA800F001ED5FEA93E6E0EA930E944A12E12F01
:103CB800E05DEA93E1E0EA930E944F12E12FADEF55
:103CC800B7E0F0E0EE0FFF1FAE0FBF1F0D901C9086
:103CD800E12FACEDB7E0F0E0EE0FFF1FAE0FBF1F16
:103CE8000E94BB72D001AE1BBF0BAD01ACE1A49F1B
:103CF800F001A59FF00DAF01E12FAAEEB7E0F0E0CB
:103D0800EE0FFF1FAE0FBF1F0D901C90E12FACED03
:103D1800B7E0F0E0EE0FFF1FAE0FBF1F0E94BB72AF
:103D2800DF01F001EA1BFB0BDA010E945E72AF01B2
:103D3800E42FE35F3E2F3B3278F4A1E11A9FF001B4
:103D4800DF01EF5FEA933A93FD01E65FEA933A9366
:103D5800E1E0EA930E944815E12FAAEEB7E0F0E00F
:103D6800EE0FFF1FAE0FBF1F0D901C90E12FACEDA3
:103D7800B7E0F0E0EE0FFF1FAE0FBF1F0E94BB724F
:103D8800D001AE1BBF0BFD01F695E795E887F987D3
:103D9800E12FADEFB7E0F0E0EE0FFF1FAE0FBF1F52
:103DA8000D901C90E12FACEDB7E0F0E0EE0FFF1F97
:103DB800AE0FBF1F0E94BB72D001AE1BBF0BAE83FC
:103DC800BF83A885B985EBE60E944072DF01E4E66F
:103DD800F0E00E945E72AE81BF81AE17BF0778F433
:103DE800A885B985E4E60E944072DF01EBE6F0E0C1
:103DF8000E945E72AE81BF81EA17FB0708F015C00A
:103E0800032F0A3288F4A1E11A9FF001DF01EF5F66
:103E1800EA930A93FD01E65FEA930A93E1E0EA93E5
:103E28000E9448150F5FEDCF2F5FA1E11A9FF001A7
:103E3800EF5FEA93E7E0EA930E944A12E12FADEFC1
:103E4800B7E0F0E0EE0FFF1FAE0FBF1F0E94BB727E
:103E5800FA93EA93E3E0EA93E0E0EA930E94CA1255
:103E68001F5FADCE0E942E640E2FE02FEC3F11F0A5
:103E78000C94C01F0E944B6410E0173010F00C9493
:103E88009F1FE12FAEECB7E0F0E0EE0FFF1FEA0F47
:103E9800FB1F0F01E12FADEFB7E0F0E0EE0FFF1FC2
:103EA800AE0FBF1F0E94BB72D001ED93FC93E12FB0
:103EB800AEE0B0E0F0E0EE0FFF1FEA0FFB1F0F01CE
:103EC800E12FACEDB7E0F0E0EE0FFF1FAE0FBF1F24
:103ED8000E94BB72D0010E94E372E12FA0E0B0E023
:103EE800F0E0EE0FFF1FEA0FFB1F0F01E12FAEEC12
:103EF800B7E0F0E0EE0FFF1FAE0FBF1F0E94BB72CE
:103F0800D0010E94E372E12FACE1B0E0F0E0EE0FE7
:103F1800FF1FEA0FFB1F0F01E12FAAEEB7E0F0E049
:103F2800EE0FFF1FAE0FBF1F0E94BB72D0010E9491
:103F3800E3721F5FA2CFE7E5FDE1E0933C08F09351
:103F48003D08E1E7FDE1E0933E08F0933F08EFEE1E
:103F5800FBE1E0934008F0934108EFEEFBE1E093CA
:103F68004208F0934308E1E0E0934708E0E0E0937B
:103F7800CF0EE093C50E54C0EA3F11F00C94142004
:103F880010E0173010F00C940D20E12FACEDB7E0E5
:103F9800F0E0EE0FFF1FEA0FFB1F0F01E12FAEE06D
:103FA800B0E0F0E0EE0FFF1FAE0FBF1F0E94D3720C
:103FB800D001ED93FC93E12FAEECB7E0F0E0EE0F0B
:103FC800FF1FEA0FFB1F0F01E12FA0E0B0E0F0E0B8
:103FD800EE0FFF1FAE0FBF1F0E94D372D001ED93EB
:103FE800FC93E12FAAEEB7E0F0E0EE0FFF1FEA0F17
:103FF800FB1F0F01E12FACE1B0E0F0E0EE0FFF1F77
:10400800AE0FBF1F0E94D372D001ED93FC931F5FC8
:10401800B8CFE0E0E093CF0EE093C50E0E944B646A
:104028000E9416732A960895629782E1A0E0B0E094
:10403800E4ECFBE10E941D730E94117310E019303B
:1040480010F00C948B20E12FF0E0DE011D96AE0FEE
:10405800BF1F0C90DE011496AE0FBF1FAC91E02D70
:10406800EA1BF0E0E7FDFFEF9F01ACEBB2E0EF8960
:10407800F0E0BD01A1EAB1E00E941872DB01AE0FC9
:10408800BF1F9996EE89F0E0BD01ABE0B0E00E9459
:104098001872DB01AE0FBF1F1A96EC91D901F0E040
:1040A800E7FDFFEF0E9446729F01D901E4E6F0E0C8
:1040B8000E9471729F01E12FF0E0DE011D96AE0FA4
:1040C800BF1FAC91B0E0A7FDBFEFA21BB30B9D01D2
:1040D800ACEBB2E0EF89F0E0BD01A1EAB1E00E94EB
:1040E8001872DB01AE0FBF1F9996EE89F0E0BD0193
:1040F800ABE0B0E00E941872DB01AE0FBF1F119653
:10410800E12FF0E0EA0FFB1F20831F5F98CF0E948A
:1041180018736896089523970E940F7310E0E09132
:10412800CA0EE03081F4E0E0E093CB0EE093CC0ED1
:10413800E093CD0EE093CE0EE093D00EE1E0E09355
:10414800CA0EE093B50AEC2DE03711F410E007C071
:10415800E53711F411E003C0EA3709F412E0E0E0B2
:10416800EA93EA930E944A12EBE8FDE1FA93EA9394
:10417800E1E0EA930E94B712E0E0EA93E1E0EA9313
:104188000E944A12E5EAFDE1FA93EA93E0E0EA9335
:104198000E94B712E12FEF5CEA93E0E0EA930E94F5
:1041A8004F12E091CB0EE03011F401E001C000E0C5
:1041B800E0E0EA93E2E0EA930E944A12EEEAFDE1C7
:1041C800FA93EA930A930E94B712013011F402E0BD
:1041D80001C000E0A091CD0EB091CE0E199720F449
:1041E800E091CD0EEF5C03C0E091CD0EE85C2E2F80
:1041F8002A930A930E944F12A091CB0EA13011F47A
:1042080001E001C000E0E0E0EA93E3E0EA930E9405
:104218004A12E8EBFDE1FA93EA930A930E94B71277
:10422800013011F402E001C000E0ACEBB2E0E12F94
:10423800F0E0BD01A1EAB1E00E941872DB01AE0F07
:10424800BF1F9996E091CD0EF091CE0EBD01ABE067
:10425800B0E00E941872DB01AE0FBF1FEC91E03096
:1042680019F4E0ECFDE104C0E13039F4E5ECFDE1DE
:10427800FA93EA930A930E94B712ACEBB2E0E12FEB
:10428800F0E0BD01A1EAB1E00E941872DB01AE0FB7
:10429800BF1F9996E091CD0EF091CE0EBD01ABE017
:1042A800B0E00E941872DB01AE0FBF1FAC91A130C5
:1042B80011F00C941F23A091CB0EA23011F401E051
:1042C80001C000E0E0E0EA93E4E0EA930E944A12C9
:1042D800E9ECFDE1FA93EA930A930E94B712ACEB7A
:1042E800B2E0E12FF0E0BD01A1EAB1E00E9418724E
:1042F800DB01AE0FBF1F9996E091CD0EF091CE0E67
:10430800BD01ABE0B0E00E941872DB01AE0FBF1F29
:104318001A963C91013011F402E001C000E03030FF
:104328003CF4EDE2EA930A930E944F12319505C0DE
:10433800EBE2EA930A930E944F12E32FF0E0E7FDC5
:10434800FFEFFA93EA93E3E0EA930A930E94CA1212
:10435800E5E2EA930A930E944F12A091CB0EA33094
:1043680011F401E001C000E0E0E0EA93E5E0EA933F
:104378000E944A12E2EDFDE1FA93EA930A930E9441
:10438800B712013011F402E001C000E0E091D00E54
:10439800E03019F4EBEDFDE127C0E13019F4E1EE6E
:1043A800FDE122C0E23019F4E7EEFDE11DC0E33083
:1043B80019F4EDEEFDE118C0E43019F4E3EFFDE186
:1043C80013C0E53019F4E9EFFDE10EC0E63019F449
:1043D800EFEFFDE109C0E73019F4E5E0FEE104C0C4
:1043E800E83039F4EBE0FEE1FA93EA930A930E948D
:1043F800B712A091CB0EA43011F401E001C000E087
:10440800E0E0EA93E6E0EA930E944A12E1E1FEE185
:10441800FA93EA930A930E94B712ACEBB2E0E12F49
:10442800F0E0BD01A1EAB1E00E941872DB01AE0F15
:10443800BF1F9996E091CD0EF091CE0EBD01ABE075
:10444800B0E00E941872DB01AE0FBF1F1196E09119
:10445800D00EF0E0AE0FBF1F3C91013011F402E026
:1044680001C000E030303CF4EDE2EA930A930E9488
:104478004F12319505C0EBE2EA930A930E944F125E
:10448800E32FF0E0E7FDFFEFFA93EA93E3E0EA9326
:104498000A930E94CA12E5E2EA930A930E944F1215
:1044A80000E00930A0F5E8E4EA93A5E00A9FF001EE
:1044B800E45FEA93E0E7EA930A9FF001E45FEA9396
:1044C8000E94AC14A091D00E0A1789F4A5E00A9FA7
:1044D800F001E85BAE2FEA93ECE0EA93EA2FEA9367
:1044E800E4E3EA93E1E0EA930E9448150EC0A5E0F0
:1044F8000A9FF001E85BAE2FEA93ECE0EA93EA2F1B
:10450800EA93E4E3EA930E94AC140F5FCACFE8E4AD
:10451800EA93E0E2EA93E0E7EA93E0E2EA93E1E093
:10452800EA930E944815ECE9EE8358E4ACEBB2E05C
:10453800E12FF0E0BD01A1EAB1E00E941872DB01B1
:10454800AE0FBF1F9996E091CD0EF091CE0EBD0132
:10455800ABE0B0E00E941872DB01AE0FBF1F1196EE
:104568003C91A32FE5E00E945972A0E2AE1B4A2FAE
:10457800EE81E75EEE8301E0093010F00C941F2312
:10458800EE81EC3911F4E8E41FC0E53B11F4EDE4E9
:104598001BC0EE3C11F4E2E517C0E73E11F4E7E575
:1045A80013C0E03011F4ECE50FC0E93111F4E1E695
:1045B8000BC0E23311F4E6E607C0EB3411F4EBE686
:1045C80003C0E43611F4E0E7E887ACEBB2E0E12F92
:1045D800F0E0BD01A1EAB1E00E941872DB01AE0F64
:1045E800BF1F9996E091CD0EF091CE0EBD01ABE0C4
:1045F800B0E00E941872DB01AE0FBF1F1196EE27C4
:10460800A00FBE1F3C91A32FE5E00E945972A0E2C3
:10461800AE1BAF835A934A93EA85EA93EA85EA93F5
:10462800E1E0EA930E94481558854F81EE81E75EE4
:10463800EE830F5FA1CF0E942E640E2FE02FEE3E77
:1046480051F4A091CB0EA13028F0E091CB0EE150AF
:10465800E093CB0E66C2E63FA1F5ACEBB2E0E12FEA
:10466800F0E0BD01A1EAB1E00E941872DB01AE0FD3
:10467800BF1F9996E091CD0EF091CE0EBD01ABE033
:10468800B0E00E941872DB01AE0FBF1FAC91A130E1
:1046980061F4A091CB0EA43020F4E091CB0EEF5F33
:1046A80001C0E0E0E093CB0E0BC0A091CB0EA1308F
:1046B80020F4E091CB0EEF5F01C0E0E0E093CB0E79
:1046C80030C2EA3FA9F4E0E0E093CB0EE093CC0ED1
:1046D800E093CD0EE093CE0EE093D00EE093CA0E99
:1046E8000E944B64E0E0E093C50E0E94F25D19C29F
:1046F800EC3F19F40E944B6414C2EE3D11F00C9487
:104708008D24E091CB0EE030A1F4E0910D02E15050
:10471800A091CD0EB091CE0EF0E0AE17BF0740F4D9
:10472800ADECBEE0ED91FD913196FE93EE9331979D
:10473800EFC0E13011F00C94F423ACEBB2E0E12FC0
:10474800F0E0BD01A1EAB1E00E941872DB01AE0FF2
:10475800BF1F9996E091CD0EF091CE0EBD01ABE052
:10476800B0E00E941872DB01AE0FBF1FAC91A13000
:10477800D9F4ACEBB2E0E12FF0E0BD01A1EAB1E081
:104788000E941872DB01AE0FBF1F9996E091CD0E03
:10479800F091CE0EBD01ABE0B0E00E941872DB01D3
:1047A800AE0FBF1FE0E01AC0ACEBB2E0E12FF0E0C3
:1047B800BD01A1EAB1E00E941872DB01AE0FBF1F74
:1047C8009996E091CD0EF091CE0EBD01ABE0B0E030
:1047D8000E941872DB01AE0FBF1FE1E0EC9398C096
:1047E800E23011F00C943824ACEBB2E0E12FF0E0A9
:1047F800BD01A1EAB1E00E941872DB01AE0FBF1F34
:104808009996E091CD0EF091CE0EBD01ABE0B0E0EF
:104818000E941872DB01AE0FBF1F1A96AC91A43626
:1048280014F5ACEBB2E0E12FF0E0BD01A1EAB1E094
:104838000E941872DB01AE0FBF1F9996E091CD0E52
:10484800F091CE0EBD01ABE0B0E00E941872DB0122
:10485800AE0FBF1F1A96EC91EF5FEC931A93E0919D
:10486800CD0EEA93E1DB54C0E33051F4A091D00EB1
:10487800A83028F4E091D00EEF5FE093D00E48C046
:10488800E43011F00C948C24ACEBB2E0E12FF0E0B2
:10489800BD01A1EAB1E00E941872DB01AE0FBF1F93
:1048A8009996E091CD0EF091CE0EBD01ABE0B0E04F
:1048B8000E941872DB01AE0FBF1F1196E091D00E57
:1048C800F0E0AE0FBF1FAC91A43614F5ACEBB2E02C
:1048D800E12FF0E0BD01A1EAB1E00E941872DB010E
:1048E800AE0FBF1F9996E091CD0EF091CE0EBD018F
:1048F800ABE0B0E00E941872DB01AE0FBF1F11964B
:10490800E091D00EF0E0AE0FBF1FEC91EF5FEC939B
:1049180008C1EE3B11F00C949525E091CB0EE030E8
:1049280079F4A091CD0EB091CE0E0E94067338F4A2
:10493800ADECBEE0ED91FD913197FE93EE93F1C0A1
:10494800E13011F00C94FB24ACEBB2E0E12FF0E085
:10495800BD01A1EAB1E00E941872DB01AE0FBF1FD2
:104968009996E091CD0EF091CE0EBD01ABE0B0E08E
:104978000E941872DB01AE0FBF1FAC91A130D9F4B1
:10498800ACEBB2E0E12FF0E0BD01A1EAB1E00E949A
:104998001872DB01AE0FBF1F9996E091CD0EF09112
:1049A800CE0EBD01ABE0B0E00E941872DB01AE0F85
:1049B800BF1FE0E01AC0ACEBB2E0E12FF0E0BD01B0
:1049C800A1EAB1E00E941872DB01AE0FBF1F9996F1
:1049D800E091CD0EF091CE0EBD01ABE0B0E00E94AB
:1049E8001872DB01AE0FBF1FE1E0EC939AC0E23012
:1049F80011F00C944025ACEBB2E0E12FF0E0BD01E2
:104A0800A1EAB1E00E941872DB01AE0FBF1F9996B0
:104A1800E091CD0EF091CE0EBD01ABE0B0E00E946A
:104A28001872DB01AE0FBF1F1A96AC91ECE9EA17BA
:104A380014F5ACEBB2E0E12FF0E0BD01A1EAB1E082
:104A48000E941872DB01AE0FBF1F9996E091CD0E40
:104A5800F091CE0EBD01ABE0B0E00E941872DB0110
:104A6800AE0FBF1F1A96EC91E150EC931A93E091A8
:104A7800CD0EEA93D9DA55C0E33051F4A091D00EA7
:104A8800A13028F0E091D00EE150E093D00E49C05B
:104A9800E43011F00C949525ACEBB2E0E12FF0E096
:104AA800BD01A1EAB1E00E941872DB01AE0FBF1F81
:104AB8009996E091CD0EF091CE0EBD01ABE0B0E03D
:104AC8000E941872DB01AE0FBF1F1196E091D00E45
:104AD800F0E0AE0FBF1FAC91ECE9EA1714F5ACEBB0
:104AE800B2E0E12FF0E0BD01A1EAB1E00E94187246
:104AF800DB01AE0FBF1F9996E091CD0EF091CE0E5F
:104B0800BD01ABE0B0E00E941872DB01AE0FBF1F21
:104B18001196E091D00EF0E0AE0FBF1FEC91E1507E
:104B2800EC930E9416732996089529970E940F7393
:104B3800ACEBB2E0E889F0E0BD01A1EAB1E00E9487
:104B48001872DB01AE0FBF1FA752BF4FEF85F0E011
:104B5800BD01A5E0B0E00E941872DB01AE0FBF1FD7
:104B68000E94BB72E1701E2FACEBB2E0E889F0E066
:104B7800BD01A1EAB1E00E941872DB01AE0FBF1FB0
:104B8800A752BF4FEF85F0E0BD01A5E0B0E00E945D
:104B98001872DB01AE0FBF1F0E94BB720E940B721E
:104BA800E1700E2FACEBB2E0E889F0E0BD01A1EABC
:104BB800B1E00E941872DB01AE0FBF1FA752BF4FB2
:104BC800EF85F0E0BD01A5E0B0E00E941872DB01BE
:104BD800AE0FBF1F0E94BB72F695E7950E9409723F
:104BE800E770E95F3E2FACEBB2E0E889F0E0BD0189
:104BF800A1EAB1E00E941872DB01AE0FBF1FA752F5
:104C0800BF4FEF85F0E0BD01A5E0B0E00E9418724B
:104C1800DB01AE0FBF1F0E94BB720E940972E170D8
:104C28002E2FACEBB2E0E889F0E0BD01A1EAB1E0DB
:104C38000E941872DB01AE0FBF1FA752BF4FEF854E
:104C4800F0E0BD01A5E0B0E00E941872DB01AE0FF4
:104C5800BF1F12960E94BB720E940972EF705E2FEE
:104C6800ACEBB2E0E889F0E0BD01A1EAB1E00E9456
:104C78001872DB01AE0FBF1FA752BF4FEF85F0E0E0
:104C8800BD01A5E0B0E00E941872DB01AE0FBF1FA6
:104C98000E94BB72F695E795E170EE87ACEBB2E047
:104CA800E889F0E0BD01A1EAB1E00E941872DB01D9
:104CB800AE0FBF1FA752BF4FEF85F0E0BD01A5E0C3
:104CC800B0E00E941872DB01AE0FBF1F12960E945F
:104CD800BB72EF704E2FACEBB2E0E889F0E0BD019B
:104CE800A1EAB1E00E941872DB01AE0FBF1FA75204
:104CF800BF4FEF85F0E0BD01A5E0B0E00E9418725B
:104D0800DB01AE0FBF1F0E94BB720E940D72E170E3
:104D1800ED87ACEBB2E0E889F0E0BD01A1EAB1E0D3
:104D28000E941872DB01AE0FBF1FA752BF4FEF855D
:104D3800F0E0BD01A5E0B0E00E941872DB01AE0F03
:104D4800BF1F1496EC91EC87ACEBB2E0E889F0E079
:104D5800BD01A1EAB1E00E941872DB01AE0FBF1FCE
:104D6800A752BF4FEF85F0E0BD01A5E0B0E00E947B
:104D78001872DB01AE0FBF1F1496EC91EF70EA8733
:104D8800ACEBB2E0E889F0E0BD01A1EAB1E00E9435
:104D98001872DB01AE0FBF1FA752BF4FEF85F0E0BF
:104DA800BD01A5E0B0E00E941872DB01AE0FBF1F85
:104DB8001496EC91E07111F0E1E001C0E0E0E987C0
:104DC800E091CD0EF091CE0E309711F4E1E001C0E4
:104DD800E0E0E887E0E0EA93E2E0EA930E944A1222
:104DE800EAE1FEE1FA93EA93EA85EA930E94B712B0
:104DF800A885A13049F4A091D00EA13011F4E2E0C9
:104E080001C0E1E0EF8302C0E0E0EF83113019F464
:104E1800E6ECFDE102C0E1ECFDE1FA93EA93E985F5
:104E2800EA930E94B712A091CD0EB091CE0E1197C1
:104E380011F4E1E001C0E0E0E887E0E0EA93E3E0B4
:104E4800EA930E944A12EAEDFCE1FA93EA93EA85B2
:104E5800EA930E94B712A885A13049F4A091D00E18
:104E6800A13011F4E2E001C0E1E0EF8302C0E0E02C
:104E7800EF83003019F4E1ECFDE13CC0E3E2FEE130
:104E8800FA93EA93E985EA930E94B712A885A130BC
:104E980049F4A091D00EA23011F4E2E001C0E1E0A3
:104EA800EF8302C0E0E0EF83213019F4E7E2FEE18E
:104EB80002C0E9E2FEE1FA93EA93E985EA930E94E7
:104EC800B712E0E2EA93E985EA930E944F12A885B7
:104ED800A13049F4A091D00EA33011F4E2E001C052
:104EE800E1E0EF8302C0E0E0EF83A5E03A9FF00144
:104EF800E453FC4FFA93EA93E985EA930E94B712C8
:104F0800A091CD0EB091CE0E129711F4E1E001C040
:104F1800E0E0E887E0E0EA93E4E0EA930E944A12DE
:104F2800EBE2FEE1FA93EA93EA85EA930E94B7126C
:104F3800A885A13049F4A091D00EA13011F4E2E087
:104F480001C0E1E0EF8302C0E0E0EF83593018F4DC
:104F5800E52FEF5C02C0E52FE85CEE83EA93E88575
:104F6800EA930E944F12A091CD0EB091CE0E1397E6
:104F780011F4E1E001C0E0E0E887E0E0EA93E5E071
:104F8800EA930E944A12E4E3FEE1FA93EA93EA857F
:104F9800EA930E94B712EE85E03081F5A885A1302A
:104FA80049F4A091D00EA13011F4E2E001C0E1E093
:104FB800EF8302C0E0E0EF83EDE3FEE1FA93EA93CA
:104FC800E985EA930E94B712A885A13049F4A09117
:104FD800D00EA23011F4E2E001C0E1E0EF8302C09C
:104FE800E0E0EF83A5E04A9FF001E453FC4FFA9319
:104FF800EA93E985EA930E94B71231C0A885A130E7
:1050080049F4A091D00EA13011F4E2E001C0E1E032
:10501800EF8302C0E0E0EF83E2E4FEE1FA93EA9373
:10502800E985EA930E94B712A885A13049F4A091B6
:10503800D00EA23011F4E2E001C0E1E0EF8302C03B
:10504800E0E0EF83493018F4E42FEF5C02C0E42F6E
:10505800E85CEE83EA93E885EA930E944F12A091F8
:10506800CD0EB091CE0E149711F4E1E001C0E0E04E
:10507800E887E0E0EA93E6E0EA930E944A12E7E470
:10508800FEE1FA93EA93EA85EA930E94B712A885AB
:10509800A13049F4A091D00EA13011F4E2E001C092
:1050A800E1E0EF8302C0E0E0EF83ED85E030B1F5A9
:1050B800EFE4FEE1FA93EA93E985EA930E94B712D6
:1050C800A885A13049F4A091D00EA23011F4E2E0F5
:1050D80001C0E1E0EF8302C0E0E0EF83AC85A030DF
:1050E8004CF4EDE2EA93E885EA930E944F12EC85CE
:1050F800E19507C0EBE2EA93E885EA930E944F1234
:10510800EC85EB87F0E0E7FDFFEFFA93EA93E3E045
:10511800EA93EA85EA930E94CA1241C0EDE3FEE1F0
:10512800FA93EA93E985EA930E94B712A885A13019
:1051380049F4A091D00EA23011F4E2E001C0E1E000
:10514800EF8302C0E0E0EF83E985E03011F0EDE2A3
:1051580001C0EBE2EA93E885EA930E944F12E0E28D
:10516800EA93E985EA930E944F12A885A13049F491
:10517800A091D00EA33011F4E2E001C0E1E0EF838A
:1051880002C0E0E0EF83EA85A5E0EA9FF001E4537E
:10519800FC4FFA93EA93E985EA930E94B7120E94BA
:1051A8002E64E887EE3E11F00C947E29E091D00E33
:1051B800E03079F4A091CD0EB091CE0E0E94067326
:1051C80038F4ADECBEE0ED91FD913197FE93EE938E
:1051D80090C0E130D1F5E091CD0EF091CE0E309730
:1051E80031F4103011F411E001C010E02DC0E130AD
:1051F800A0E0FA0731F4003011F401E001C000E04A
:1052080023C0E230A0E0FA0739F4E0910D02E15042
:105218005E1708F45F5F18C0E330A0E0FA0749F4AE
:10522800EE85E03011F4E1E001C0E0E0EE8740E017
:105238000BC0E430A0E0FA0739F4ED85E03011F452
:10524800E1E001C0E0E0ED8754C0E230D1F5E09143
:10525800CD0EF091CE0EE130A0E0FA0731F4203007
:1052680011F421E001C020E02BC0E330A0E0FA07F0
:1052780091F4AE85A13049F4E0910D02E1504E174A
:1052880010F44F5F01C040E005C04D3010F44F5F8F
:1052980001C040E015C0E430A0E0FA0789F4ED85CC
:1052A800E03039F4AC85AD371CF4EC85EF5FEC8762
:1052B80007C0E985E03011F4E1E001C0E0E0E987EA
:1052C80018C0E330B1F4E091CD0EF091CE0EE1308C
:1052D800A0E0FA0721F43D3008F43F5F0AC0E4304B
:1052E800A0E0FA0731F4AA85AD3018F4EA85EF5F3B
:1052F800EA87A3C1E63F11F00C94212AE091D00E71
:10530800E03071F4A091CD0EB091CE0E149738F420
:10531800ADECBEE0ED91FD913196FE93EE938CC01D
:10532800E130E1F5E091CD0EF091CE0E309731F4F9
:10533800103011F411E001C010E02FC0E130A0E0FE
:10534800FA0731F4003011F401E001C000E025C093
:10535800E230A0E0FA0721F4513008F051501DC0A6
:10536800E330A0E0FA0751F4EE85E03019F4E1E00B
:10537800EE8703C0E0E0EE8740E00FC0E430A0E035
:10538800FA0759F4ED85E03021F4E1E0ED87E0E03B
:1053980003C0E0E0ED87E4E6EC874EC0E230A1F51B
:1053A800E091CD0EF091CE0EE130A0E0FA0731F495
:1053B800203011F421E001C020E025C0E330A0E056
:1053C800FA0759F4413008F04150AE85A03011F485
:1053D8004E3008F401C040E016C0E430A0E0FA07FF
:1053E80091F4ED85E03041F4AC85E3E8EA171CF46C
:1053F800EC85E150EC8707C0E985E03011F4E1E085
:1054080001C0E0E0E98718C0E330B1F4E091CD0EC7
:10541800F091CE0EE130A0E0FA0721F4383008F020
:1054280031500AC0E430A0E0FA0731F4AA85A1306F
:1054380018F0EA85E150EA8700C1EA3FD9F4E0E0D4
:10544800E093CC0E0E944B64E0914808EA930E94D6
:105458002D5AE0917E02A0919F070E944B72E09323
:10546800A007E0917E02A0919F070E949B72E093A3
:10547800A107E3C0EC3F11F00C94B12AE091CD0EE6
:10548800F091CE0E309761F4A091D00EA13020F4A7
:10549800E091D00EEF5F01C0E0E0E093D00E5CC079
:1054A800E130A0E0FA07D1F4003061F4A091D00E09
:1054B800A13020F4E091D00EEF5F01C0E0E0E0936E
:1054C800D00E0BC0A091D00EA33020F4E091D00EE6
:1054D800EF5F01C0E0E0E093D00E3EC0E230A0E014
:1054E800FA0761F4A091D00EA13020F4E091D00E1B
:1054F800EF5F01C0E0E0E093D00E2EC0E330A0E003
:10550800FA0761F4A091D00EA23020F4E091D00EF9
:10551800EF5F01C0E0E0E093D00E1EC0E430A0E0F1
:10552800FA07D1F4ED85E03061F4A091D00EA230F5
:1055380020F4E091D00EEF5F01C0E0E0E093D00EE0
:105548000BC0A091D00EA33020F4E091D00EEF5FF5
:1055580001C0E0E0E093D00E70C0EE3D11F00C9475
:10556800162BE091CD0EF091CE0E309751F4A0910C
:10557800D00EA13028F4E091D00EEF5FE093D00E6A
:1055880050C0E130A0E0FA07B1F4003051F4A09126
:10559800D00EA13028F4E091D00EEF5FE093D00E4A
:1055A80009C0A091D00EA33028F4E091D00EEF5F8F
:1055B800E093D00E36C0E230A0E0FA0751F4A09193
:1055C800D00EA13028F4E091D00EEF5FE093D00E1A
:1055D80028C0E330A0E0FA0751F4A091D00EA23021
:1055E80028F4E091D00EEF5FE093D00E1AC0E430BB
:1055F800A0E0FA07B1F4ED85E03051F4A091D00EA7
:10560800A23028F4E091D00EEF5FE093D00E09C0ED
:10561800A091D00EA33028F4E091D00EEF5FE09374
:10562800D00E0BC0EE3B49F4A091D00EA13028F06B
:10563800E091D00EE150E093D00E103021F4A0910B
:10564800CC0EA03009F042C0EF85EE83AE81A832BF
:1056580010F00C94692BACEBB2E0E889F0E0BD01E6
:10566800A1EAB1E00E941872DB01AE0FBF1FA7527A
:10567800BF4FEE81F0E0BD01A5E0B0E00E941872D6
:10568800E60FF71FFF93EF93ACEBB2E0E889F0E089
:10569800BD01A1EAB1E00E941872DB01AE0FBF1F85
:1056A800A752BF4FEE81EF5FF0E0BD01A5E0B0E08B
:1056B8000E941872E60FF71FAF91BF9185E00E9414
:1056C800FC72EE81EF5FEE83C1CF47C1ACEBB2E075
:1056D800E889F0E0BD01A1EAB1E00E941872DB019F
:1056E800AE0FBF1FA752BF4FEF85F0E0BD01A5E089
:1056F800B0E00E941872DB01AE0FBF1FE12FE1700E
:105708000E2EEC91EE7FE029EC93ACEBB2E0E88949
:10571800F0E0BD01A1EAB1E00E941872DB01AE0F12
:10572800BF1FA752BF4FEF85F0E0BD01A5E0B0E075
:105738000E941872DB01AE0FBF1FE02FE170EE0F61
:10574800EE0FEE0F0E2EEC91E77FE029EC93ACEB19
:10575800B2E0E889F0E0BD01A1EAB1E00E94187268
:10576800DB01AE0FBF1FA752BF4FEF85F0E0BD01B1
:10577800A5E0B0E00E941872DB01AE0FBF1FE32F57
:10578800E750E770E295E07FEE0F0E2EEC91EF7197
:10579800E029EC93ACEBB2E0E889F0E0BD01A1EAC6
:1057A800B1E00E941872DB01AE0FBF1FA752BF4FB6
:1057B800EF85F0E0BD01A5E0B0E00E941872DB01C2
:1057C800AE0FBF1FE22FE170E295E07F0E2EEC9145
:1057D800EF7EE029EC93ACEBB2E0E889F0E0BD01A4
:1057E800A1EAB1E00E941872DB01AE0FBF1FA752F9
:1057F800BF4FEF85F0E0BD01A5E0B0E00E94187250
:10580800DB01AE0FBF1F1296E52FEF70E295E07F28
:105818000E2EEC91EF70E029EC93ACEBB2E0E88946
:10582800F0E0BD01A1EAB1E00E941872DB01AE0F01
:10583800BF1FA752BF4FEF85F0E0BD01A5E0B0E064
:105848000E941872DB01AE0FBF1FEE85E170EE0FEC
:105858000E2EEC91ED7FE029EC93ACEBB2E0E889F9
:10586800F0E0BD01A1EAB1E00E941872DB01AE0FC1
:10587800BF1FA752BF4FEF85F0E0BD01A5E0B0E024
:105888000E941872DB01AE0FBF1F1296E42FEF7053
:105898000E2EEC91E07FE029EC93ACEBB2E0E889C6
:1058A800F0E0BD01A1EAB1E00E941872DB01AE0F81
:1058B800BF1FA752BF4FEF85F0E0BD01A5E0B0E0E4
:1058C8000E941872DB01AE0FBF1FED85E170EE0F6D
:1058D800EE0F0E2EEC91EB7FE029EC93ED85E03096
:1058E800D9F4ACEBB2E0E889F0E0BD01A1EAB1E09F
:1058F8000E941872DB01AE0FBF1FA752BF4FEF8582
:10590800F0E0BD01A5E0B0E00E941872E60FF71FB5
:105918003496AC85A08321C0ACEBB2E0E889F0E016
:10592800BD01A1EAB1E00E941872DB01AE0FBF1FF2
:10593800A752BF4FEF85F0E0BD01A5E0B0E00E949F
:105948001872E60FF71F3496BF01E985A0E1EA9FB8
:10595800F001AA85EA0FDB01EC930E9416736196A9
:1059680008952F970E940F73E091CA0EE03081F4DA
:10597800E0E0E093CB0EE093CC0EE093CD0EE09305
:10598800CE0EE093D00EE1E0E093CA0EE093B50AA4
:10599800EC2DE13711F410E007C0E63711F411E0FF
:1059A80003C0EB3709F412E0E0E0EA93EA930E94BF
:1059B8004A12E4E5FEE1FA93EA93E1E0EA930E94F1
:1059C800B712A091CC0EA33011F00C94F02D20E06A
:1059D800223010F00C94DA2D50E0543010F00C9472
:1059E800D82DE22FEE0FEE0FE50FAE2FE0917E02DD
:1059F800AE1710F00C94D62DACE32A9FF001E65FA9
:105A0800EA93E52FEE5FEA930E944A12EEE6FEE182
:105A1800FA93EA93E0E0EA930E94B712E22FEE0FBE
:105A2800EE0FE50FEF5FF0E0FA93EA93E1E0EA9317
:105A3800E0E0EA930E94CA12E0E2EA93E0E0EA9327
:105A48000E944F12E22FEE0FEE0FE50F6E2FA8E225
:105A5800B8E0F0E0EE0FFF1FAE0FBF1F0D901C90D7
:105A6800AEE0B2E0E62FF0E0EE0FFF1FAE0FBF1F73
:105A78000E94BB720E161F06B8F0E62FA8E2B8E027
:105A8800F0E0EE0FFF1FAE0FBF1F0D901C90AEE2AF
:105A9800B2E0E62FF0E0EE0FFF1FAE0FBF1F0E942F
:105AA800BB72E015F10508F457C0E22FEE0FEE0FB8
:105AB800E50F6E2FA8E2B8E0F0E0EE0FFF1FAE0F83
:105AC800BF1F0D901C90AEE0B2E0E62FF0E0EE0FA5
