:080000000C94E3020C940000D3
:100008000C9400000C9400000C9400000C94000068
:100018000C9400000C9400000C9400000C94000058
:100028000C9400000C9400000C9400000C94000048
:100038000C9400000C9400000C9400000C94000038
:100048000C9400000C9400000C9400000C94000028
:100058000C9400000C9400000C9400000C94000018
:100068000C9400000C9400000C9400000C94000008
:100078000C9400000C9400000C9400000C940000F8
:100088000C940000030000000000000000035F0063
:100098000000000000000403000300000000000747
:1000A800247E24247E24000006042A7F2A100000CF
:1000B80000080205621826502000073649495620D4
:1000C800500000040000000000000000033E410052
:1000D800000000000003413E00000000000006147C
:1000E800083E08140000000608083E080800000042
:1000F80004806000000000000005080808080000EF
:10010800000003400000000000000004601C030021
:1001180000000000063E615D433E00000006040248
:100128007F000000000006426151494600000006B9
:100138002241494936000000061814127F100000B9
:1001480000062745454539000000063E4545453827
:100158000000000601611907010000000636494940
:100168004936000000060E5151513E00000003229E
:100178000000000000000004806200000000000091
:1001880004081422000000000005141414140000D0
:1001980000000422140800000000000602015109B2
:1001A80006000000040000000000000000067C12A9
:1001B80011127C000000067F4949493E00000006F4
:1001C8003E41414122000000067F4141221C0000BF
:1001D80000067F49494949000000057F09090100D7
:1001E800000000063C42415172000000067F0808EA
:1001F800087F000000037F000000000000000630B8
:100208004040403F000000067F08142241000000E3
:10021800067F40404040000000077F020404027F40
:100228000000067F0408107F000000063E4141419F
:100238003E000000067F09090906000000063E414D
:1002480061C13E000000067F09091966000000062A
:1002580026494949320000000601017F01010000DA
:1002680000063F4040403F00000007073840403844
:10027800070000083F40380638403F00066314086E
:1002880014630000000603047804030000000661FC
:1002980051494543000000037F4100000000000071
:1002A80004031C60000000000003417F0000000000
:1002B800000006040201020400000005808080801E
:1002C80000000000040000000000000000052054A9
:1002D800547800000000057F444438000000000501
:1002E8003844444400000000053844447F000000BE
:1002F8000005385454580000000004047E0500002E
:100308000000000518A4A47C00000000057F040478
:100318007800000000027D0000000000000004409A
:10032800807D0000000000057F10284400000000C8
:10033800037F40000000000000067C047C04780075
:100348000000057C040478000000000538444438A7
:100358000000000005FC24241800000000051824F3
:1003680024FC80000000047804040000000000055C
:10037800485454240000000004047F440000000096
:1003880000053C40407C000000000604384038046A
:10039800000000083C40300830403C00064428106B
:1003A8002844000000060498601804000000064471
:1003B80064544C4400000008FF818181818181FFE1
:1003C80008FF81BDBDBDBD81FF08013179797D7F01
:1003D8007D31081111111010103810083E081C1C2E
:1003E8007C3E1E1E081E1C1818181C0E0E0607053B
:1003F8000505070200000501020F020100000005C3
:100408000609090600000000080AFEABFFFEEAE044
:1004180040083C4285999985423C082030383C3850
:1004280030200008040C1C3C1C0C040000F8FE06DC
:10043800030303030306FEF800071F1830303030AB
:1004480030181F070000000C0C0EFFFF0000000012
:100458000000003030303F3F30303000001C1E07B5
:10046800030383C3E3773E1C0030383C3E37333107
:1004780030303030000C0E07C3C3C3C3C3E77E3C23
:10048800000C1C383030303030391F0E00C0E0709E
:10049800381C0E07FFFF00000003030303030303D8
:1004A8003F3F0303003F7F636363636363E3C38387
:1004B800000C1C383030303030381F0F00C0F0F8D6
:1004C800DCCEC7C3C3C38000000F1F3930303030C3
:1004D80030391F0F00030303030303C3F33F0F0364
:1004E80000000000303C0F03000000000000BCFECC
:1004F800E7C3C3C3E7FEBC00000F1F3930303030FC
:1005080030391F0F003C7EE7C3C3C3C3C3E7FEFCFB
:10051800000000303030381C0E07030000000000D7
:100528007070700000000000000000001C1C1C001F
:10053800000000001027E80364000A000100001012
:100548000001100001006A056F05740579057E0534
:10055800830588058D05920597059C05A105A605C7
:10056800AB0541696C6500456C6576005468726F2F
:10057800005275646400486F765000486F765400E6
:100588005069745400464D6F6400476561720054A9
:10059800726E2E00544375740041696C4400456CBA
:1005A800654400527564440001002D4E414E000020
:1005B8001C001C094E0501003A09B0050000F8941A
:1005C800EE27ECBBF1E0F5BFE5BFE0936C00F8E186
:1005D800F1BDE1BD8DE0A2E0BB27ED938A95E9F777
:1005E80080E090E1A0E0B1E0ED930197E9F7E8EB56
:1005F800F5E085919591009761F0A591B5910590E9
:100608001590BF01F00105900D920197E1F7FB01EC
:10061800F0CFEFEFEDBFE0E1EEBFC0E0D5E00C9426
:10062800EE051A93E5B3E57FE5BBE5B3E063E5BB0B
:10063800E0E0EABB19B3AD98A99AE12F19910895A2
:10064800F0DFE078E9F7E5B3E57EE5BBEFEFEABB7D
:10065800E881EBBBAD9AAD98A99A55C2E2DFE07884
:10066800E9F7E5B3ED7EE5BBAB9AEFEFEABBE881CE
:10067800EBBBAD9AAD98A99A46C2E5B3E470E5BB69
:1006880085E08A95F1F785E08A95F1F7AA9A80E7DF
:1006980097E10197F1F7E2EEEA93D2DFEEEAEA9307
:1006A800CFDFE1EAEA93CCDFE6EAEA93C9DFE4EADE
:1006B800EA93C6DFE2EAEA93C3DFE0ECEA93C0DF3D
:1006C800EFE2EA93BDDFE5E2EA93BADFE1E8EA9315
:1006D800B7DFE2E2EA93B4DFEFEAEA93B1DF28D0CA
:1006E80001D008951A930A9310E0183000F5E12F0D
:1006F800E06BEA93A5DFE0E1EA93A2DFE4E0EA93A6
:100708009FDF00E0003888F4E12FF0E00E94250622
:100718000E942306E45EFA4FDF01EE27A00FBE1FFA
:10072800EC91EA939BDF0F5FEDCF1F5FDECF4FC2E7
:100738001A930A9300E00830A0F410E0103878F417
:10074800E02FF0E00E9425060E942306E45EFA4F9F
:10075800DF01EE27A10FBE1FEC931F5FEFCF0F5FE6
:10076800EACF35C21A930A93EB81E695E695E695AA
:100778001E2FEB81E770A1E00E941B060E2FEA8175
:10078800E03089F0E12FF0E00E9425060E94230660
:10079800E45EFA4FDF01EC81F0E0EA0FFB1FDF01B6
:1007A800EC91E02B14C0E12FF0E00E9425060E9496
:1007B8002306E45EFA4FDF01EC81F0E0EA0FFB1F4D
:1007C8000F01E081AE2FE02FE095EA23D001EC93F2
:1007D800198108812596089524970E944606AD85BB
:1007E800EB85EA1B2E2F3327AE85EC85EA1B0E2FEF
:1007F800112733233AF4F9010E9417069F01EFEFFE
:10080800FFEF02C0E1E0F0E0E887F98711233AF44E
:10081800F8010E9417068F014FEF5FEF02C041E019
:1008280050E0000F111F220F331FEE85EA93EE856B
:10083800EA93EC85EA9396DF201731077CF5F801F7
:10084800F595E795DF01F901EA1BFB0BEE83FF83C2
:10085800EC85AE85EA1709F1AF81AA235AF0E8853D
:10086800F985AD85EA0FED87EE81FF81E01BF10B7D
:10087800EE83FF83FA01AE85EA0FEE87F901AE81B8
:10088800BF81EA0FFB1FEE83FF83EE85EA93EE85B7
:10089800EA93EC85EA9366DFDBCF2EC0F901F59584
:1008A800E795DF01F801EA1BFB0BEE83FF83EB857D
:1008B800AD85EA1709F1AF81AA2352F0FA01AE8596
:1008C800EA0FEE87EE81FF81E21BF30BEE83FF83D5
:1008D800E885F985AD85EA0FED87F801AE81BF811E
:1008E800EA0FFB1FEE83FF83EE85EA93EE85EA931A
:1008F800EC85EA9337DFDBCF0E944D062F960895EB
:1009080059804880229608950E944606AF81A930F2
:1009180019F4E8E45E2E29C0EF81E052A9E0EA9FCD
:10092800F001E457FF4FAF01FA014F5F5F4F349179
:10093800393008F038E010E01317B8F4FA014F5FC7
:100948005F4F249100E0083068F45A92E02FE40DDC
:10095800EA93E885E227E095E170EA9303DF2695BC
:100968000F5FF1CF53941F5FE7CF0E944D06289683
:100978000895E881E150EA93E42DE150EA93E52DEA
:10098800E150EA93E42DE150EA93E1E0EA9324DFB1
:10099800E881E150EA93E42DE150EA93EA81E150DD
:1009A800EA93E42DE95FEA93E1E0EA9315DFABC04F
:1009B8001A93152DEA81FB81E491E03061F0EA8118
:1009C800FB813196EA83FB833197E491EA93EA81CC
:1009D800EA939ADFEFCFE981E03011F41A93C9DF87
:1009E8001881249608951A930A9300E0AA81E5E0F5
:1009F800EA9FF0010E0F10E0EA811E17E0F4EE8185
:100A0800E00FEA93EE81EA937BDFAB81BC81EAE0F9
:100A1800F0E00E943F06F096EA93E1E0EA9374DF83
:100A28000650AB81BC81EAE0F0E00E942C06EB8323
:100A3800FC831F5FE1CF19810881279608951A93D7
:100A48000A9310E0123010F00C947A0500E0083098
:100A580010F00C947805E12FEE0FEE0FEE0FE00F7B
:100A6800EE3010F00C947605E12FE295E07FEE0F62
:100A7800EE0FEA93E02FEE0FEE0FEE0FEA9340DF52
:100A8800E12FEE0FEE0FEE0FE00FACE1B9E0F0E072
:100A9800EE0FFF1FAE0FBF1F0E944206FA93EA93A4
:100AA800E1E0EA9385DFE12FE295E07FEE0FEE0FBC
:100AB800E05EEA93E02FEE0FEE0FEE0FEA93E12FE0
:100AC800EE0FEE0FEE0FE00FA0E0B5E0F0E0EE0F56
:100AD800FF1FAE0FBF1F0E944206FA93EA93E4E09D
:100AE800EA9381DF0F5FB3CF1F5FACCF70C0E8819F
:100AF800E064E7B985E38A95F1F7369A349BFECF2F
:100B0800349AE4B1F5B1219608951A930A9300E056
:100B180010E00730E0E01E0794F4F801A0E0B5E02B
:100B2800EE0FFF1FEA0FFB1FFF93EF930A93DFDF20
:100B3800AF91BF91ED93FC930F5F1F4FEACFEEE0AB
:100B4800F5E0A0E0B0E0A083B183E0916300E87035
:100B580031F4EEE0F5E0A1E0B0E0A083B1830E99B6
:100B680006C0EEE0F5E0A2E0B0E0A083B183A0E12A
:100B7800B5E0E0E00C99E1E0F0E0ED93FC93A2E150
:100B8800B5E0E0E00D99E1E0F0E0ED93FC93A4E13D
:100B9800B5E0E0E00899E1E0F0E0ED93FC93A6E130
:100BA800B5E0E0E00999E1E0F0E0ED93FC93A8E11D
:100BB800B5E0E0E00A99E1E0F0E0ED93FC93AAE10A
:100BC800B5E0E0916300E170F0E0ED93FC930991EA
:100BD80019910895E0E0EBBBEFEFEABBEEEFE8BB5D
:100BE800E1E0E7BBE1ECE5BBEEE3E4BBEFEFE2BB42
:100BF800E0E0E1BBE7EFE3B9E8E0E2B9E0E0E09389
:100C08006200E0936100EFE1E0936500E0E0E093CB
:100C18006400E0E4E7B9E7E8E6B92FDD76DF0FDF47
:100C280061DDFCCFFFCFF195E195F0400895EE230B
:100C38000E2EEA2F19F0EE0F0A94E9F70895EE0F39
:100C4800FF1FEE0FFF1FEE0FFF1FEE0FFF1F089590
:100C58000024112490E1AA0FBB1F001C111C0E1ABE
:100C68001F0A18F40E0E1F1E01C0A1609A9599F76D
:100C7800FD01D0010895ECDFFD010895ED91FC918F
:100C8800119708955A934A933A932A931A930A9379
:100C980008955D814C813B812A81198108810895DD
:00000001FF
