:100000000C9478110C9400000C9400000C940000E7
:100010000C9400000C9400000C9400000C94000060
:100020000C9400000C9400000C9400000C94000050
:100030000C9496640C9400000C9400000C94000046
:100040000C9400000C9400000C9400000C94000030
:100050000C9400000C9400000C9400000C94000020
:100060000C9400000C9400000C9400000C94000010
:100070000C9400000C9400000C9400000C94000000
:100080000C9400000C9400000C9400000000000090
:100090000000005E00000008060806287E287E2872
:1000A000042A7E2A104C2C106864344A56205000D2
:1000B000000008060000182442000042241814081A
:1000C0003E081408083E08080000B0700000080848
:1000D000080800006060000060180600003C424212
:1000E0003C0000447E40004462524C00424A4A3484
:1000F0000018147A10002E4A4A32003C4A4A300056
:1001000002720A0600344A4A34000C52523C000083
:100110006C6C000000A86800000008142200141491
:10012000141400002214080004520A043C425A5AD3
:100130001C007C12127C007E4A4A34003C4242245D
:10014000007E42423C007E4A4A42007E0A0A020089
:100150003C425234007E10107E00427E420000205D
:1001600040403E007E182442007E4040407E04080D
:10017000047E007E08107E003C42423C007E12124B
:100180000C003C42225C007E12324C00244A522475
:1001900002027E0202003E40403E1E2040201E7EA3
:1001A0002018207E422418244202047804020062AF
:1001B000524A46007E424200000618600000424259
:1001C0007E00080402040840404040400000060849
:1001D000000030484878007E4848300030484848A1
:1001E000003048487E00784858580008FE0A080049
:1001F00010A8A878007E08087000487A40000080A7
:1002000088FA00007E10284000427E400078087086
:1002100008700078080870003048483000F8282836
:100220001000102828F80078100808005058682896
:1002300000087E4848003840407818204020183890
:100240004030403800483030480098A0A07800483E
:1002500068584800107C440000007E000000004404
:100260007C101010443810103844101041494C458F
:10027000524F4E000000454C455641542E000000A0
:100280005448524F54542E00000052554444455295
:1002900020000000484F5620504954000000484FAD
:1002A00056205448520000005049542054524D00EA
:1002B000000046204D4F4445200000004745415274
:1002C000202020000000545241494E4552000000B9
:1002D0005448522E43555400000041494C45204497
:1002E00052000000454C4556204452000000525533
:1002F00044442044520000004143524F202000005B
:10030000504C414E4552000048454C4920200000C9
:100310004C494E450000000053570000000000000B
:100320004D554C54490000004E4F524D414C000079
:10033000004C414E44494E470000545241494E45FD
:1003400052000050494C4F5441474500334400008F
:100350000000000000344400000000000000494498
:100360004C45310000000049444C4532000000007B
:10037000535441525400000000535045454400007E
:100380000000435255495345000000544845524D22
:10039000414C00003132333435363738394142432D
:1003A00044454647205F2D2B41424344454647483C
:1003B000494A4B4C4D4E4F50515253545556575835
:1003C000595A3031323334353637383941494C2E69
:1003D00000454C452E005448522E005255442E00E4
:1003E000484F565000484F5654005049545400311D
:1003F000303025004745415200545241490054488D
:1004000052430041494C4400454C45440052554438
:100410004400004D41494E204D454E55000000001E
:10042000000001000000000000000000000146493B
:100430004C45000000000000000002000007000022
:100440000000000000000000024544495400000084
:1004500000000000000301000C0102000002000087
:100460000000000354494D455253000000000000B5
:10047000040200840000000000000000000004539B
:10048000595354454D0000000000000503003F0093
:1004900000000000000000000005494E464F00002B
:1004A000000000000000000400000000000000C682
:1004B000420000003F414C41524D0000000000004E
:1004C00000400004AE0000000000000000000040FA
:1004D000434F4E54524F4C5300000000413F049D87
:1004E0000000000000000000000041434F4E545245
:1004F0004153540000000088400400000000001F29
:1005000000000000008850504D20464F524D41548D
:10051000000042410400000000001E000000000036
:1005200042534F554E4400000000000000E3880491
:10053000E200000000000000000000E34B455953BA
:100540002026205452494D00DF4204E40000000000
:10055000000000000000DF562D4449534B0000000E
:1005600000000000E304E0000000000000000000C4
:10057000009D535449434B204D4F444500004300D8
:1005800040000000000021000000000043564945E3
:10059000572043414C49425200449D400000000016
:1005A0000000F61C0000004443414C4942524154B3
:1005B000494F4E000043400000000000007A1D003B
:1005C0000000075245534554204D4F44454C000808
:1005D00000010000000000009F34000000084F50A0
:1005E000454E204D4F44454C0000090701000000D6
:1005F00000000098390000000953415645204D4F36
:1006000044454C00000A08010000000000008E4034
:100610000000000A534156452041532E2E00000091
:100620000B09010000000000006F3F0000000B45B7
:1006300052415345204D4F44454C00000A010000F3
:1006400000000000833E0000000C5459504500009B
:100650000000000000000D00020000020000010088
:10066000000000000D4E414D45000000000000005C
:10067000000E0C02000102000002031C0000000E2C
:100680004348414E4E454C53000000000F0D0245BB
:10069000000000000000000000000F434F4E5452C5
:1006A0004F4C5300000000100E022D00000000000F
:1006B000000000000010464C59204D4F44455300A7
:1006C0000000000F026900000000000000BB0200F3
:1006D000454C434820534554000000000046000E9E
:1006E00011000000000000000000004643482053B5
:1006F000455400000000000000450E2C00000000E2
:10070000000000000000114C434820434F554E5458
:10071000000000120045000D020000030000000070
:1007200000124C4348204550410000000000471192
:100730004514000000000000000D0200474C434833
:100740002044454C41590000005812454800000023
:10075000000000000D0200584C4348205245564509
:100760005253450000474559000000000000000DAD
:100770000200594C43482031205245562E20005A41
:100780000058006E0200000900000000015A4C43AE
:10079000482032205245562E20005B5958006F02E7
:1007A00000000900000000025B4C43482033205247
:1007B00045562E20005C5A580070020000090000C7
:1007C0000000035C4C43482034205245562E200044
:1007D0005D5B5800710200000900000000045D4CE0
:1007E00043482035205245562E20005E5C5800724A
:1007F0000200000900000000055E4C43482036203E
:100800005245562E20005F5D58007302000009001B
:10081000000000065F4C43482037205245562E20EA
:1008200000605E58007402000009000000000760CC
:100830004C43482038205245562E2000615F580016
:1008400075020000090000000008614C434820398F
:10085000205245562E2000626058007602000009A2
:100860000000000009624C43482041205245562EAA
:100870002000636158007702000009000000000AB0
:10088000634C43482042205245562E200064625853
:10089000007802000009000000000B644C4348206F
:1008A00043205245562E200065635800790200000F
:1008B00009000000000C654C434820442052455676
:1008C0002E2000666458007A020000090000000033
:1008D0000D664C43482045205245562E2000676542
:1008E00058007B02000009000000000E674C4348DE
:1008F0002046205245562E2000686658007C020093
:100900000009000000000F684C4348204720524572
:10091000562E2000006758007D02000009000000EC
:100920000010484C434820312044454C415900496F
:100930000047004E025E02080000000001494C43DF
:100940004820322044454C4159004A4847004F0254
:100950005F020800000000024A4C43482033204454
:10096000454C4159004B49470050026002080000C5
:100970000000034B4C434820342044454C4159006F
:100980004C4A4700510261020800000000044C4C30
:10099000434820352044454C4159004D4B470052B7
:1009A0000262020800000000054D4C43482036203A
:1009B00044454C4159004E4C470053026302080025
:1009C000000000064E4C434820372044454C415916
:1009D000004F4D4700540264020800000000074F1A
:1009E0004C434820382044454C415900504E470064
:1009F00055026502080000000008504C43482039A9
:100A00002044454C415900514F47005602660208A8
:100A10000000000009514C434820412044454C410E
:100A20005900525047005702670208000000000AB0
:100A3000524C434820422044454C415900535147B1
:100A4000005802680208000000000B534C43482085
:100A5000432044454C415900545247005902690211
:100A600008000000000C544C434820442044454CEE
:100A7000415900555347005A026A0208000000001D
:100A80000D554C434820452044454C41590056548F
:100A900047005B026B0208000000000E564C434802
:100AA00020462044454C415900575547005C026C94
:100AB0000208000000000F574C43482047204445DF
:100AC0004C415900005647005D026D0208000000CD
:100AD00000102C434820544F2050504D000000136C
:100AE0000046007E02000006000000000013464998
:100AF0004C544552530000000000002C46240000D6
:100B000000000000007E0200144348203100000075
:100B10000000000000150012000E022E020400006A
:100B200000000115434820320000000000000000D2
:100B300016141200100230020400000000021643D6
:100B400048203300000000000000001715120012BA
:100B50000232020400000000031743482034000062
:100B600000000000000018161200140234020400F5
:100B70000000000418434820350000000000000079
:100B800000191712001602360204000000000519B1
:100B90004348203600000000000000001A18120030
:100BA000180238020400000000061A4348203700EB
:100BB000000000000000001B1912001A023A020493
:100BC00000000000071B4348203800000000000020
:100BD00000001C1A12001C023C0204000000000865
:100BE0001C4348203900000000000000001D1B12BB
:100BF000001E023E020400000000091D434820417F
:100C000000000000000000001E1C12002002400234
:100C100004000000000A1E434820420000000000BB
:100C20000000001F1D12002202420204000000000A
:100C30000B1F434820430000000000000000201E5E
:100C400012002402440204000000000C204348204B
:100C5000440000000000000000211F120026024690
:100C60000204000000000D21434820450000000060
:100C700000000000222012002802480204000000A8
:100C8000000E224348204600000000000000002320
:100C90002112002A024A0204000000000F234348E8
:100CA00020470000000000000000002212002C027B
:100CB0004C020400000000102443482031000000D2
:100CC0000000000000250013007F028002056C1860
:100CD0000000012543482032000000000000000011
:100CE0002624130082028302056C180000022643AA
:100CF0004820330000000000000000272513008575
:100D0000028602056C1800000327434820340000C7
:100D10000000000000002826130088028902056CEC
:100D2000180000042843482035000000000000009F
:100D300000292713008B028C02056C18000005297E
:100D40004348203600000000000000002A2813005D
:100D50008E028F02056C180000062A4348203700D7
:100D6000000000000000002B2913009102920205F0
:100D70006C180000072B43482038000000000000DA
:100D80000000002A130094029502056C1800000868
:100D90002D535449434B000000000000002E000F6B
:100DA00031000000000000000000002E56415249B2
:100DB0004F000000000000002F2D0F350000000044
:100DC0000000000000002F53574954434800000022
:100DD000000000302E0F390000000000000000006D
:100DE0000030425554544F4E000000000000002FC8
:100DF0000F3E000000000000000000003141494C9F
:100E000045524F4E530000000032002D00970298CB
:100E10000207000000000032454C455641544F5235
:100E20000000000033312D0099029A0207000000F3
:100E30000000335448524F54544C450000000034D5
:100E4000322D009B029C0207000000000034525526
:100E50004444455200000000000000332D009D0274
:100E60009E0207000000000035484F5620504954AC
:100E7000000000000036002E009F02A002070000C4
:100E800000000036484F5620544852000000000031
:100E900037352E00A102A2020700000000003750E3
:100EA00049542054524D000000000000362E00A38B
:100EB00002A402070000000000394745415200002B
:100EC0000000000000003A002F00A702A80207005F
:100ED000000000003A5448522E43555400000000D0
:100EE000003B392F00AB02AC020700000000003BC2
:100EF00041494C4520445200000000003C3A2F007C
:100F0000AD02AE020700000000003C454C455620F3
:100F1000445200000000003D3B2F00AF02B002072A
:100F200000000000003D525544442044520000009F
:100F30000000003C2F00B102B202070000000000D8
:100F40003E545241494E455200000000000000301E
:100F500000A902AA0207000000000069464D4F44A4
:100F60004520434F554E540099001000BB0200002D
:100F70000A000000000099464D4F444520434F5061
:100F80005900006A69109A0000000000000000008B
:100F9000006A464D4F4445203100000000006B9927
:100FA000106DBC0200000B00000000016B464D4FAD
:100FB0004445203200000000006C6A10725D04009D
:100FC000000B00000000026C464D4F4445203300EA
:100FD00000000000006B1077FE0500000B00000011
:100FE00000039A46524F4D00000000000000009B95
:100FF000009900C40E00000A00000000009B544F3E
:10100000000000000000000000009C9A9900C50E3E
:1010100000000A00000000009C434F5059000000EF
:101020000000000000009B9900000000001D00006F
:101030000000006D464D4F4445204E414D45000097
:101040006E006A00BC0200000C00000000006E553B
:101050004348205452494D2E0000006F6D6A7C00B9
:101060000000000000000000006F4C4348204D4984
:1010700044444C450000706E6AAF00000000000060
:10108000000D0200704C4348204355525645000065
:1010900000716F6A000000000000822000000071F3
:1010A0004D495845525300000000000000706A008E
:1010B0000000000000A82C000000AF4C4348312085
:1010C0004D4944444C4500B0006F00C50200000E7D
:1010D0000000000001B04C434832204D4944444CCC
:1010E0004500B1AF6F00C70200000E000000000213
:1010F000B14C434833204D4944444C4500B2B06F95
:1011000000C90200000E0000000003B24C43483446
:10111000204D4944444C4500B3B16F00CB02000060
:101120000E0000000004B34C434835204D494444B0
:101130004C4500B4B26F00CD0200000E000000006C
:1011400005B44C434836204D4944444C4500B5B3A2
:101150006F00CF0200000E0000000006B54C4348AF
:1011600037204D4944444C4500B6B46F00D10200CD
:10117000000E0000000007B64C434838204D49449B
:10118000444C4500B7B56F00D30200000E000000CC
:101190000008B74C434839204D4944444C4500B8F9
:1011A000B66F00D50200000E0000000009B84C43E5
:1011B0004841204D4944444C4500B9B76F00D7021F
:1011C00000000E000000000AB94C434842204D497F
:1011D00044444C4500BAB86F00D90200000E00002C
:1011E00000000BBA4C434843204D4944444C450051
:1011F000BBB96F00DB0200000E000000000CBB4C0E
:10120000434844204D4944444C4500BCBA6F00DD7E
:101210000200000E000000000DBC4C434845204D6C
:101220004944444C4500BDBB6F00DF0200000E0086
:101230000000000EBD4C434846204D4944444C45F7
:1012400000BEBC6F00E10200000E000000000FBEF7
:101250004C434847204D4944444C450000BD6F0075
:10126000E30200000E00000000107C5452494D2E95
:10127000205354455000007D006E00BD0200000A5E
:1012800000000000007D41494C45524F4E53000084
:1012900000007E7C6E00BE0200000D000000000118
:1012A0007E454C455641544F52000000007F7D6EF4
:1012B00000BF0200000D00000000017F5448524FA3
:1012C00054544C4500000000807E6E00C0020000B7
:1012D0000D000000000180525544444552000000BA
:1012E000000000817F6E00C10200000D00000000C0
:1012F0000181484F56205049540000000000828070
:101300006E00C20200000D000000000182484F562E
:1013100020544852000000000083816E00C3020088
:10132000000D000000000183504954205452494DE3
:101330000000000000826E00C40200000D000000EA
:10134000000184464C592054494D45520000008507
:1013500000030009020902170000000001854C4942
:1013600056452054494D45520000868403000B0227
:101370000B02170000000001865345542054494DCC
:10138000455200000087850300000000001800009F
:1013900000000187555044415445204C49464500C2
:1013A000AC86030000000000190000000001AC45FD
:1013B00056454E5420535441525400A68703000012
:1013C000000000140000000000A64556454E5420C1
:1013D00053544F50000000AC0300000000001B00FD
:1013E0000000000072464D4F4445204E414D4500DF
:1013F0000073006B005D0400000C0000000000732F
:10140000554348205452494D2E00000074726B8D94
:1014100000000000000000000000744C4348204D14
:101420004944444C45000075736BBF000000000048
:1014300000000D0200754C434820435552564500AC
:10144000000076746B0000000000008220000000A5
:10145000764D495845525300000000000000756B5E
:10146000000000000000A82C000000BF4C434831E1
:10147000204D4944444C4500C000740066040000FF
:101480000E0000000001C04C434832204D49444446
:101490004C4500C1BF7400680400000E000000004D
:1014A00002C14C434833204D4944444C4500C2C01E
:1014B00074006A0400000E0000000003C24C4348A0
:1014C00034204D4944444C4500C3C174006C0400B1
:1014D000000E0000000004C34C434835204D494431
:1014E000444C4500C4C274006E0400000E000000AD
:1014F0000005C44C434836204D4944444C4500C582
:10150000C37400700400000E0000000006C54C43C8
:101510004837204D4944444C4500C6C47400720409
:1015200000000E0000000007C64C434838204D491B
:1015300044444C4500C7C57400740400000E00000C
:10154000000008C74C434839204D4944444C4500ED
:10155000C8C67400760400000E0000000009C84CE4
:10156000434841204D4944444C4500C9C774007864
:101570000400000E000000000AC94C434842204D00
:101580004944444C4500CAC874007A0400000E0067
:101590000000000BCA4C434843204D4944444C458D
:1015A00000CBC974007C0400000E000000000CCBCE
:1015B0004C434844204D4944444C4500CCCA740037
:1015C0007E0400000E000000000DCC4C4348452076
:1015D0004D4944444C4500CDCB7400800400000EBE
:1015E000000000000ECD4C434846204D4944444C79
:1015F0004500CECC7400820400000E000000000FF5
:10160000CE4C434847204D4944444C450000CD74DE
:1016100000840400000E00000000108D5452494D5B
:101620002E205354455000008E0073005E040000CD
:101630000A00000000008E41494C45524F4E5300B5
:101640000000008F8D73005F0400000D000000009B
:10165000018F454C455641544F5200000000908E7A
:101660007300600400000D00000000019054485217
:101670004F54544C4500000000918F7300610400EA
:10168000000D0000000001915255444445520000F5
:101690000000000092907300620400000D00000042
:1016A000000192484F56205049540000000000931A
:1016B000917300630400000D000000000193484F87
:1016C00056205448520000000000949273006404B5
:1016D00000000D000000000194504954205452496C
:1016E0004D0000000000937300650400000D000031
:1016F00000000177464D4F4445204E414D450000C6
:1017000078006C00FE0500000C0000000000785519
:101710004348205452494D2E00000079776C9E00BA
:10172000000000000000000000794C4348204D49B3
:1017300044444C4500007A786CCF00000000000063
:10174000000D02007A4C4348204355525645000094
:10175000007B796C00000000000082200000007B0C
:101760004D4958455253000000000000007A6C00BB
:101770000000000000A82C000000CF4C434831209E
:101780004D4944444C4500D0007900070600000E46
:101790000000000001D04C434832204D4944444CE5
:1017A0004500D1CF7900090600000E0000000002BC
:1017B000D14C434833204D4944444C4500D2D07964
:1017C000000B0600000E0000000003D24C4348341A
:1017D000204D4944444C4500D3D179000D0600000A
:1017E0000E0000000004D34C434835204D494444CA
:1017F0004C4500D4D279000F0600000E0000000016
:1018000005D44C434836204D4944444C4500D5D37B
:101810007900110600000E0000000006D54C434878
:1018200037204D4944444C4500D6D4790013060076
:10183000000E0000000007D64C434838204D4944B4
:10184000444C4500D7D57900150600000E00000075
:101850000008D74C434839204D4944444C4500D8F2
:10186000D67900170600000E0000000009D84C438E
:101870004841204D4944444C4500D9D779001906C8
:1018800000000E000000000AD94C434842204D4998
:1018900044444C4500DAD879001B0600000E0000D5
:1018A00000000BDA4C434843204D4944444C45006A
:1018B000DBD979001D0600000E000000000CDB4C97
:1018C000434844204D4944444C4500DCDA79001F2C
:1018D0000600000E000000000DDC4C434845204D82
:1018E0004944444C4500DDDB7900210600000E0030
:1018F0000000000EDD4C434846204D4944444C4511
:1019000000DEDC7900230600000E000000000FDE80
:101910004C434847204D4944444C450000DD790084
:10192000250600000E00000000109E5452494D2E66
:10193000205354455000009F007800FF0500000A26
:1019400000000000009F41494C45524F4E5300009B
:101950000000A09E7800000600000D0000000001BD
:10196000A0454C455641544F5200000000A19F78BD
:1019700000010600000D0000000001A15448524F74
:1019800054544C4500000000A2A07800020600005C
:101990000D0000000001A2525544444552000000D1
:1019A000000000A3A17800030600000D0000000065
:1019B00001A3484F56205049540000000000A4A243
:1019C0007800040600000D0000000001A4484F56F6
:1019D000205448520000000000A5A378000506002E
:1019E000000D0000000001A5504954205452494DFB
:1019F0000000000000A47800060600000D000000B2
:101A00000001E0434C55535445520000000000E1F2
:101A100000DF00000000000F0000000000E1464F62
:101A2000524D4154205644000000E8E0DF00000021
:101A30000000002141000000E8564449534B204972
:101A40004E464F000000E1DF00000000000054425D
:101A5000000000E2534F554E44204F4E000000005E
:101A600000004200F8070000100000000000E44BF6
:101A70004559205052455353000000E500E300F95A
:101A8000070000110000000000E54B4559205245B9
:101A9000505245535300A9E4E300FA070000110037
:101AA00000000000A95452494D2E20505245535376
:101AB00000A8E5E300FB0700001A0000000000A8F2
:101AC000302D5452494D20424545500000A9E300B5
:101AD000000000001C0000000000AE4241545445CC
:101AE00052590000000000AD003FE6000000000079
:101AF0000000000000AD464C592054494D455200AD
:101B0000000000AE3FAB000000000000000000003D
:101B1000E64241545420564F4C542E0000A700AECC
:101B20000037080000120000000000A74241545492
:101B30002043414C49425200E7E6AE00000000005D
:101B4000200000000000E74241545420414C415223
:101B50004D000000A7AE003908000013000000008F
:101B600000AB31204D494E2E204245455000AA0081
:101B7000AD0000000000150000000000AA4C415319
:101B800054204245455000000000ABAD000000006D
:101B900000160000000000001027E80364000A009F
:101BA000010000100001100001009CD3F1FD0003B2
:101BB0000F2D649CB5CEE70019324B642020494EAE
:101BC000434F525245435420434C555445522053A1
:101BD000495A45202000434C5553544552205349FF
:101BE0005A452053455420544F20333220202000A2
:101BF00020434845434B204E45572056414C5545C0
:101C000020494E204D454E553A00205359535445D6
:101C10004D202D20562D4449534B0020414E442049
:101C200054525920414741494E2E2E200020202059
:101C300020202046494C452045524153454420210F
:101C4000202020202020002020202046494C452014
:101C50005752495445204552524F522021202020AE
:101C600000204E6F20667265652073706163652089
:101C7000666F72207461736B202000202020204644
:101C8000696C65204E4F5420534156454400202036
:101C9000202020202046494C544552204544495498
:101CA00020202020202020004348414E4E454C3A21
:101CB000200046494C54455220545950453A200082
:101CC0005357495443483A200056414C55453A2011
:101CD000004348414E4E454C533A205B202E202E67
:101CE000202E202E205D0020202020204544495415
:101CF000204D4F44454C204E414D45202020202072
:101D0000004E414D453A205B0020202020204341D9
:101D10004C4942524154494F4E20494E464F202093
:101D20002020002020202020202043414C494252E6
:101D30004154494F4E2020202020202000204341A4
:101D40004C4942524154494F4E20434F4D504C450F
:101D500054452021202000416C6C20616E616C6F25
:101D60006720636F6E74726F6C7320726561647943
:101D70000020202020202020435552564520204579
:101D8000444954202020202020200046204D4F444C
:101D9000453A20004C4348204E554D3A20004355CB
:101DA0005256453A2000204F464600204F4E0045EF
:101DB00058504F3A202020004C434820494E3A20AA
:101DC000002D3130302500202D37352500202D35D0
:101DD000302500202D323525002020203025002000
:101DE0002B32352500202B35302500202B3735258B
:101DF000002B313030250056414C55453A2020000B
:101E00004143544956453A20004F4E20002D002BA7
:101E100000444553543A20202000534F5552434527
:101E20003A200055434820004C434820004D495873
:101E300020253A200046495820002020202020203C
:101E4000204D495845522020454449542020202007
:101E5000202020004348003C4D494E20003E4D418B
:101E60005820004E4F2054595020535749542E208B
:101E70004420534F55522050524F432E002D2D2DAC
:101E80002D2D002D2D202D2D2D202D2D2D2D2D20D6
:101E90002D202D2D2D2D202D2D2D2D2D0020524589
:101EA0005345542043555252454E54204D4F4445BE
:101EB0004C20202020200020746F2063616E636519
:101EC0006C207072657373204D454E552020203E66
:101ED00000746F2070726F63657373207072657326
:101EE00073202D2045584954203E002020202020DA
:101EF0004F50454E204D4F44454C2046494C4520BF
:101F000020202020004E4E20545950452020204DA6
:101F10004F44454C4E414D452053495A45200020E1
:101F200020202020562D4449534B20204552524F0B
:101F3000522021202020202000202020204E4F2031
:101F40004652454520205350414345202120202022
:101F500020200020202064656C657465206F6C640F
:101F6000206D6F64656C73202020202000202020CD
:101F70006F7220666F726D617420562D4469736BA9
:101F800020202020202000202020455241534520A1
:101F9000204D4F44454C2041532E2E202020202000
:101FA00000202020202053415645204D4F44454CD1
:101FB0002041532E2E2020202020002020202020D1
:101FC000202046494C45205341564544202120209D
:101FD00020202020002020205341564520435552E8
:101FE00052454E54204D4F44454C20202020007433
:101FF0006F2070726F6365737320707265737320E6
:102000002D204D454E55203E0020746F2063616E9B
:1020100063656C20707265737320455849542020A5
:10202000203E0020202020464F524D415420562D66
:102030004449534B203F20202020202000416C6C3D
:102040002064617461206D7573742062652064651D
:102050006C657465642100202020562D4449534B43
:102060002020464F524D41545445442021202020E9
:10207000002046696C65206F7065726174696F6ECF
:102080007320656E61626C65640020202020204D05
:102090004F44454C20204D4F44494649454420205B
:1020A0002020200020202020202020202020202050
:1020B0002020202020202020202020202000202040
:1020C0002020202020202020202020202020202010
:1020D00053415645202D3E0020534156452043484C
:1020E000414E47455320544F20562D4449534B3FB2
:1020F0002000202020202020202020202020202000
:10210000202043414E43454C202D3E0020202020DE
:10211000202020562D4449534B2020494E464F2025
:10212000202020202000562D4469736B20736563A6
:10213000746F7220636F6C3A2000206672656520B0
:1021400073706163653A2000202020562D434F4470
:102150004552202076657220302E393962202020A9
:102160002000617574686F723A20566974616C79E9
:10217000205620476F7262756B6F7600206275691A
:102180006C643A2032333234202031372E30382EEE
:1021900032303132200020666972737420757365A5
:1021A0002061742032312E30372E32303130200011
:1021B000202020666F7220737570706F7274206DAE
:1021C00061696C20746F20202000202020676F72CE
:1021D00062756B6F764079616E6465782E727520DA
:1021E000202020004E4F524D414C00524556455242
:1021F0005345002056002020202020202020574139
:10220000524E494E4720212020202020202020000F
:10221000202055534520544849532056414C55459C
:10222000204E4F5420464F522000202020202033A3
:1022300053204C49504F204241545445525920207C
:10224000202020004D414E55414C00203E3230258B
:1022500000555345204355525200414444205449AF
:102260004D4500203C313025004E4F204556454E0F
:1022700054004245455026504155534500434F5068
:102280005900504F534954495645004E4547415413
:1022900049564500202020562D434F4445522020CA
:1022A0007665722E20302E39396220202000544865
:1022B000524354005255442E4400454C452E440090
:1022C00054524E2E00474541520041494C2E440085
:1022D000484F565000484F5654005049545400003F
:1022E00001002D4E414E00000100E60EE0220000EC
:1022F000F894EE27ECBBF1E0F5BFE5BFE0936C008E
:10230000F8E1F1BDE1BD8DE0A2E0BB27ED938A9538
:10231000E9F780E090E1A0E0B1E0ED930197E9F703
:10232000E8EEF2E285919591009761F0A591B59163
:1023300005901590BF01F00105900D920197E1F70E
:10234000FB01F0CFEFEFEDBFE0E1EEBFC0E0D2E088
:102350000C94A26BE5B3E57EE5BBEFEFEABBE88149
:10236000EBBBAD9AAD98A99A7FC6E5B3ED7EE5BB10
:10237000AB9AEFEFEABBE881EBBBAD9AAD98A99AB7
:1023800073C61A930A9310E0183000F5E12FE06B42
:10239000EA93E0DFE0E1EA93DDDFE4E0EA93DADF0D
:1023A00000E0003888F4E12FF0E00E9446710E94BE
:1023B0004471E054F54FDF01EE27A00FBE1FEC91F2
:1023C000EA93D3DF0F5FEDCF1F5FDECF7CC41A939C
:1023D0000A9300E00830A0F410E0103878F4E02F01
:1023E000F0E00E9446710E944471E054F54FDF0115
:1023F000EE27A10FBE1FEC931F5FEFCF0F5FEACF59
:1024000062C4E5B3E470E5BB85E08A95F1F785E049
:102410008A95F1F7AA9A80E797E10197F1F7E2EE42
:10242000EA9398DFEEEAEA9395DFE1EAEA9392DF36
:10243000E6EAEA938FDFE4EAEA938CDFE2EAEA93E2
:1024400089DFE0ECEA9386DFEFE2EA9383DFE5E2FF
:10245000EA9380DFE1E8EA937DDFE2E2EA937ADF64
:10246000EFEAEA9377DFB3DF8CDF0895E1E8EA93E0
:1024700071DFE881EA936EDFF7C5E981EE5F4E2EEA
:10248000588055C51A93AA81AF3718F0A13208F4C5
:102490004EC010E0153010F00C949712A981A230B4
:1024A00019F4E0912608E983E981E030E1F4E52DB3
:1024B000F0E00E9446710E944471E054F54FDF0144
:1024C000E42DF0E0EA0FFB1FBF01EA81E052A5E036
:1024D000EA9FF001DF01E12FF0E0EA0FFB1FE45774
:1024E000FF4FE4911FC0E130F9F4E52DF0E00E94C8
:1024F00046710E944471E054F54FDF01E42DF0E095
:10250000EA0FFB1FBF01EA81E052A5E0EA9FF0015C
:10251000DF01E12FF0E0EA0FFB1FE457FF4FA4912A
:10252000EFEFEA1BDB01EC9343941F5FB3CF1881FD
:10253000D1C5E52DF0E00E9446710E944471E0543F
:10254000F54FDF01E42DF0E0EA0FFB1FA881A08327
:1025500043948AC5E981FA81E491E03069F0E98128
:10256000FA81E491EA93E981EA938CDFE981FA81C7
:102570003196E983FA83EECFADC50E94557200E033
:10258000342DED81E150A5E0EA9FF0010E0F10E03F
:10259000ED811E17C8F4E32FE00F4E2EAE81BF81F0
:1025A000EAE0F0E00E94E271E05DEA93ED81EA93F7
:1025B00069DF0550AE81BF81EAE0F0E00E94A271C0
:1025C000EE83FF831F5FE4CFED81A5E0EA9FF0017A
:1025D000E30F4E2E25C00E945572042D352DED813E
:1025E000E50DE1505E2E10E0ED811E17B8F4402E8F
:1025F000AE81BF81EAE0F0E00E94E271E05DEA9323
:10260000ED81EA933FDF5A94AE81BF81EAE0F0E0CA
:102610000E94A271EE83FF831F5FE6CF402E532EF0
:102620000E945C72289608951A930A93AC81A03890
:1026300018F4AB81A03408F032C0EB81E695E69542
:10264000E6951E2FEB81E770A1E00E943C710E2FF2
:10265000EA81E03081F0E12FF0E00E9446710E94B3
:102660004471E054F54FDF01EC81F0E0AE0FBF1F85
:10267000EC91E02B13C0E12FF0E00E9446710E9424
:102680004471E054F54FDF01EC81F0E0EA0FFB1FED
:102690000F01A081E02FE095EA23D001EC9319818E
:1026A00008818CC20E94557210E0153010F00C9415
:1026B000AC13EC81E052A5E0EA9FF001DF01E12FCD
:1026C000F0E0EA0FFB1FE457FF4F349100E00830C1
:1026D00010F00C94AA13E32FE170E130C1F5E12F63
:1026E000EE0FAE81EA0FEA93E02FEE0FAE81EA0F14
:1026F000EA93E1E0EA9398DFE12FEE0FAE81EA0F73
:10270000EF5FEA93E02FEE0FAE81EA0FEA93E1E08C
:10271000EA938ADFE12FEE0FAE81EA0FEA93E02F12
:10272000EE0FAE81EA0FEF5FEA93E1E0EA937CDF20
:10273000E12FEE0FAE81EA0FEF5FEA93E02FEE0F8D
:10274000AE81EA0FEF5FEA93E1E0EA936DDF369541
:102750000F5FBDCF1F5FA9CF0E945C7227960895BF
:102760000E94557230E0EC81E150AAE0EA9FF0014E
:102770003E0F10E0EC811E17D0F4E885E30F0E2F1A
:102780000A93E885EA93AF81B885EAE0F0E00E9419
:10279000E271E05DEA9386DF3A50AD81BE81EAE006
:1027A000F0E00E94A271ED83FE831F5FE3CFC3C000
:1027B0000E94537210E0153010F00C947114EE81E9
:1027C000E052A5E0EA9FF001DF01E12FF0E0EA0F1F
:1027D000FB1FE457FF4F3491A3E01A9F202D00E028
:1027E000083010F00C946F14E32FE170E13011F019
:1027F0000C946C14A3E00A9F502DE22FA885EA0FD9
:10280000EA93E52FA885EA0FEA93E1E0EA930CDF6B
:10281000E22FA885EA0FEF5FEA93E52FA885EA0F7C
:10282000EA93E1E0EA9300DFE22FA885EA0FEE5F8A
:10283000EA93E52FA885EA0FEA93E1E0EA93F4DE54
:10284000E22FA885EA0FEA93E52FA885EA0FEF5F4C
:10285000EA93E1E0EA93E8DEE22FA885EA0FEF5F72
:10286000EA93E52FA885EA0FEF5FEA93E1E0EA93A8
:10287000DBDEE22FA885EA0FEE5FEA93E52FA8855D
:10288000EA0FEF5FEA93E1E0EA93CEDEE22FA8855C
:10289000EA0FEA93E52FA885EA0FEE5FEA93E1E0FD
:1028A000EA93C2DEE22FA885EA0FEF5FEA93E52FF5
:1028B000A885EA0FEE5FEA93E1E0EA93B5DEE22F46
:1028C000A885EA0FEE5FEA93E52FA885EA0FEE5F91
:1028D000EA93E1E0EA93A8DE36950F5F81CF1F5FB0
:1028E0006ACF0E945A7229C00E94557230E0EC8172
:1028F000E150AFE0EA9FF0013E0F10E0EC811E17BF
:10290000D0F4E885E30F0E2F0A93E885EA93AF81B0
:10291000B885EAE0F0E00E94E271E05DEA9348DF0A
:102920003F50AD81BE81EAE0F0E00E94A271ED83EC
:10293000FE831F5FE3CF0E945C722996089526975D
:102940000E945372AE85EC85EA1B4E2F5527AF854A
:10295000ED85EA1B2E2F332711E055233AF4FA01B7
:102960000E943871AF01EFEFFFEF02C0E1E0F0E04D
:10297000E887F98733233AF4F9010E9438719F01FF
:10298000EFEFFFEF02C0E1E0F0E0EA87FB87220F04
:10299000331F440F551FEF85EA93EF85EA931A938F
:1029A00043DE4217530794F5F901F595E795DF01EA
:1029B000FA01EA1BFB0BEE83FF83ED85AF85EA1777
:1029C00021F1AF81AA2352F0E885AE85EA0FEE87A8
:1029D000EE81FF81E21BF30BEE83FF83EA85AF8577
:1029E000EA0FEF87FA01AE81BF81EA0FFB1FEE838A
:1029F000FF83103011F010E001C011E0EF85EA9381
:102A0000EF85EA931A9310DED8CF31C0FA01F5951D
:102A1000E795DF01F901EA1BFB0BEE83FF83EC85F1
:102A2000AE85EA1721F1AF81AA2352F0EA85AF857E
:102A3000EA0FEF87EE81FF81E41BF50BEE83FF8346
:102A4000E885AE85EA0FEE87F901AE81BF81EA0F16
:102A5000FB1FEE83FF83103011F010E001C011E086
:102A6000EF85EA93EF85EA931A93DEDDD8CF0E94D3
:102A70005A726096089523970E945372AD85EB8534
:102A8000EA1B1E2FAC85EA85EA1B0E2F10301CF0C6
:102A9000188731E005C0AB85ED85EA1BE8873FEF7D
:102AA00000301CF00F8321E005C0AA85EC85EA1BED
:102AB000EF832FEF5D854C85EF81A885AE1768F118
:102AC000E885EE83AE81A13038F1013074F0AD8538
:102AD000E52FEA1BAF81EA9FF001AE2FE8850E9447
:102AE0008F71AC85EA0F4E2F0DC0AD85E52FEA1B27
:102AF000AF81EA9FF001AE2FE8850E948F71AC850F
:102B0000AE1B4A2F5A934A93EB85EA938DDD530F00
:102B1000EE81E150EE83D6CF21C0EF81EE83AE810E
:102B2000A130E0F0013024F0AC85E42FEA1B02C0B4
:102B3000EC85E41BA885EA9FF001AE2FEF810E948F
:102B40008F71AD85EA0F5E2F5A934A93EB85EA9316
:102B50006BDD420FEE81E150EE83E1CF0E945A72AD
:102B60002E960895EC81EA93EC81EA93EC81EA9346
:102B7000EE81EA93EC81EA937EDFEC81EA93EA81CD
:102B8000EA93EC81EA93EC81EA93EC81EA9373DFB8
:102B9000EC81EA93EC81EA93EE81EA93EC81EA938B
:102BA000EC81EA9368DFEA81EA93EC81EA93EC81B5
:102BB000EA93EC81EA93EC81EA935DDF2596089530
:102BC0001A930A93AEE4B0E00E941B72E03139F030
:102BD000E03229F0E03319F0E03409F04EC000E0B3
:102BE00010E0AEE4B0E00E941B72F0E0A0EAB7E0B3
:102BF0000E94B5710E171F0760F5AEE4B0E00E94A9
:102C00001B72F0E0A0EAB7E00E94B5713197E017BF
:102C1000F10771F0AEE4B0E00E941B72D801F0E061
:102C20000E945C71E15BFF4FDF01E02FEF5F0CC0A2
:102C3000AEE4B0E00E941B72D801F0E00E945C712B
:102C4000E15BFF4FDF01EFEF0E942F720F5F1F4F1D
:102C5000C8CF00E010E00031E0E01E0750F4AFEE16
:102C6000B7E0A00FB11FEFEF0E942F720F5F1F4F51
:102C7000F2CFAFEFB7E0E0E024C0ECEBFBE1E09394
:102C80003B08F0933C08E6EDFBE1E0933D08F09350
:102C90003E08E0EFFBE1E0933F08F0934008EAE0F4
:102CA000FCE1E0934108F0934208EBE1FCE1E093A2
:102CB0004308F0934408E1E0E0934608AEE4B0E056
:102CC000E0E20E942F720991199108951A93E1E0B0
:102CD000AE2EA981A03110F011E018C0A981B0E09A
:102CE000A151B84F0E941B72EF3F11F412E00EC0C9
:102CF000B980A981B0E0A151B84F0E941B726E2E1D
:102D00007724E1E0F0E04F0110E0AA24E12F0EC1AA
:102D10001A9310E0AA20A9F5AEE4B0E00E941B725D
:102D2000D301F0E00E945C71E80DF91DE15BFF4FFB
:102D3000DF010E941B721E2FF40131964F01AEE499
:102D4000B0E00E941B72D401F0E0EA17FB07C9F45F
:102D5000E1E0F0E04F01AEE4B0E00E941B72D3016D
:102D6000F0E00E945C71E15BFF4FDF010E941B728B
:102D70006E2E7724EFEFF0E0E615F70511F4E1E0B1
:102D8000AE2EE12F199108951A93E1E0AE2EA9819C
:102D9000A03110F011E047C0AFEFB7E00E941B7206
:102DA000EF3F11F40C941217E981F0E0E151F84F74
:102DB0000F01AFEFB7E00E941B72D0010E942F728B
:102DC000AFEFB7E00E941B726E2E7724AFEFB7E033
:102DD0000E941B720E2E1124AEE4B0E00E941B7202
:102DE000F0E0D0010E945C71E15BFF4FDF010E94C7
:102DF0001B72AFEFB7E00E942F72AEE4B0E00E940A
:102E00001B72F0E0D3010E945C71E15BFF4FDF01B8
:102E1000EFEF0E942F72B980E1E0F0E04F0110E087
:102E2000AA2401C012E0E12F81C01A93A981B0E069
:102E3000A151B84F0E941B72EF3F11F40C949617EA
:102E4000AFEFB7E00E941B721E2F1F3F11F40C94CE
:102E50006017012E1124AEE4B0E00E941B72F0E076
:102E6000D0010E945C71E15BFF4FDF010E941B7289
:102E7000EF3F89F0012E1124AEE4B0E00E941B72F6
:102E8000F0E0D0010E945C71E15BFF4FDF010E9426
:102E90001B721E2FDECF012E1124AEE4B0E00E9483
:102EA0001B72F0E0D0010E945C71E15BFF4F0F01EB
:102EB000A981B0E0A151B84F0E941B72D00108C097
:102EC000A981B0E0A151B84F0E941B72AFEFB7E0EB
:102ED0000E942F72A981B0E0A151B84FEFEF0E947C
:102EE0002F72E0914608E03009F5E5EDFBE1E09353
:102EF0003D08F0933E08EDE2FCE1E0933B08F093DF
:102F00003C08E4EDFBE1E0933F08F0934008E4ED7A
:102F1000FBE1E0934108F0934208E4EDFBE1E0932C
:102F20004308F0934408E1E0E093460818812296B4
:102F30000895AA2011F00C943418AEE4B0E00E9479
:102F40001B72D301F0E00E945C71E80DF91DE15B9A
:102F5000FF4FDF010E941B72AE2FE881EA1781F05C
:102F6000AEE4B0E00E941B72D301F0E00E945C71FD
:102F7000E80DF91DE15BFF4FDF01E8810E942F7230
:102F8000F40131964F01AEE4B0E00E941B72D4010F
:102F9000F0E0EA17FB0711F00C943418E1E0F0E0E0
:102FA0004F01AFEFB7E00E941B72EF3FC1F1AEE4FB
:102FB000B0E00E941B72F0E0D3010E945C71E15B03
:102FC000FF4F0F01AFEFB7E00E941B72D0010E94CC
:102FD0002F72AFEFB7E00E941B726E2E7724AEE423
:102FE000B0E00E941B72F0E0D3010E945C71E15BD3
:102FF000FF4FDF010E941B72AFEFB7E00E942F72FC
:10300000AEE4B0E00E941B72F0E0D3010E945C715C
:10301000E15BFF4FDF01EFEF0E942F7225C0E1E07F
:10302000AE2EE7E4FCE1E0933B08F0933C08E1E6D8
:10303000FCE1E0933D08F0933E08EBE7FCE1E09310
:103040003F08F0934008E4EDFBE1E0934108F09382
:103050004208E4EDFBE1E0934308F0934408E1E02B
:10306000E0934608BA92E1DE219608951A930A93F6
:10307000AA81B0E0A151B84F0E941B720E2F0F3FE2
:1030800029F111E0002E1124AEE4B0E00E941B7281
:10309000F0E0D0010E945C71E15BFF4FDF010E9414
:1030A0001B72EF3F91F0002E1124AEE4B0E00E94BD
:1030B0001B72F0E0D0010E945C71E15BFF4FDF0109
:1030C0000E941B720E2F1F5FDDCF01C010E0E12FA9
:1030D000198108812396089526970E945372E091E2
:1030E000C60EE03071F4E0E0E093C70EE093C80E46
:1030F000E1E0E093C60EE1E0F0E0E093C90EF0936A
:10310000CA0EE0E0EA93EA93B8D9EEE8FCE1FA935C
:10311000EA93E1E0EA931EDAEC2DE4521E2FAFE7CA
:10312000B2E0E12FF0E0BD01A3E0B0E00E945C71ED
:10313000DB01AE0FBF1F0C91AFE7B2E0E12FF0E073
:10314000BD01A3E0B0E00E945C71DB01AE0FBF1FC8
:1031500011964D915C91E0E0EA93E2E0EA938DD91B
:10316000E8EAFCE1FA93EA93E0E0EA93F3D9E12F8D
:10317000F0E0EC56FC4FE491EA93E0E0EA9382D968
:10318000E091C70EE03011F432E001C030E0E0E041
:10319000EA93E3E0EA9371D9E2EBFCE1FA93EA9374
:1031A000E0E0EA93D7D9E02FF0E00E944671E05FBB
:1031B000FC4FFA93EA933A93CDD9E02FE13011F026
:1031C0000C943419A091C70EA13011F432E001C063
:1031D00030E0FA01EF835E83E0E0EA93E4E0EA9313
:1031E0004CD9E0ECFCE1FA93EA93E0E0EA93B2D93F
:1031F000EF81AAE0EA9FF001E459FD4FFA93EA93C8
:103200003A93A8D9A091C70EA23011F432E001C0C0
:1032100030E0E0E0EA93E5E0EA932FD9E9ECFCE165
:10322000FA93EA93E0E0EA9395D9AE81A03044F4B2
:10323000EDE2EA933A9326D9EE81E195EE8304C05C
:10324000EBE2EA933A931ED9EE81F0E0E7FDFFEF5F
:10325000FA93EA93E3E0EA933A938FD9E5E2EA93AB
:103260003A9310D95E8382C0E23011F00C94B61903
:10327000E0E0EA93E4E0EA9300D9E1EDFCE1FA93BF
:10328000EA93E0E0EA9366D9ECE3EA93E4E0EA93B8
:10329000F4D820E0E0E0EA87EB87AA85BB85509769
:1032A000D8F4FA01E170E13079F4EA85FB85EC5657
:1032B000FC4FE491EA93E1E0EA93E4D8E0E2EA9398
:1032C000E0E0EA93DFD82F5F56954795EA85FB85C6
:1032D0003196EA87FB87E1CFE0E0E887E987A885B8
:1032E000B985129710F00C94B619E8E2EA93E985D3
:1032F000EA5FEA93C2D8E0E0EA87EB87AA85BB855C
:10330000189770F5A885B985E8E00E948471AA85B0
:10331000BB85AE0FBF1FE091C80EF0E0EA17FB07B8
:1033200021F4A091C70EA13009F002C032E001C023
:1033300030E0A885B985E8E00E948471AA85BB8544
:10334000EA0FFB1FEC56FC4FE491EA933A939AD8AC
:1033500043944394EA85FB853196EA87FB87CECF79
:10336000E885F9853196E887F987B9CF0E94C96366
:103370003E2FE32FEE3E51F4A091C70EA13028F06E
:10338000E091C70EE150E093C70E39C2E63FC9F4A1
:10339000E02FE13051F4A091C70EA23028F4E09163
:1033A000C70EEF5FE093C70E0BC0E23049F4A09167
:1033B000C70EA13028F4E091C70EEF5FE093C70E6F
:1033C0001EC2EA3FA9F5023011F4243008F01FC0F4
:1033D000AFE7B2E0E12FF0E0BD01A3E0B0E00E9472
:1033E0005C71DB01AE0FBF1F1196E0E0F0E0ED93E2
:1033F000FC93AFE7B2E0E12FF0E0BD01A3E0B0E065
:103400000E945C71DB01AE0FBF1FE0E0EC93E0E0D7
:10341000E093C70EE093C80EE093C60EE093C90E8A
:10342000E093CA0E0E94E663E0E0E093C10EE7C1BC
:10343000EC3F11F00C94881AE1E0E093B10A0E948D
:10344000E663A091C70EA13010F40C94871AE02F08
:10345000E13009F45CC0E23011F00C94871AAFE758
:10346000B2E0E12FF0E0BD01A3E0B0E00E945C71AA
:10347000DB01AE0FBF1F11960E94FF71A091C90E14
:10348000B091CA0EEA23FB23EA87FB87AA85BB8596
:103490000E944A72E0F4AFE7B2E0E12FF0E0BD0134
:1034A000A3E0B0E00E945C71DF01E60FF71F3196E8
:1034B0000F01FD01DB01AE0FBF1F11960E94FF71CE
:1034C000A091C90EB091CA0EEA1BFB0B1DC024309F
:1034D000F0F4AFE7B2E0E12FF0E0BD01A3E0B0E02F
:1034E0000E945C71DF01E60FF71F31960F01FD01AD
:1034F000DB01AE0FBF1F11960E94FF71A091C90E94
:10350000B091CA0EEA0FFB1FD001ED93FC9377C177
:10351000EE3D11F00C94441BE1E0E093B10AE09120
:10352000C70EE03011F00C94D91A013010F40C944D
:10353000D81AAFE7B2E0E12FF0E0BD01A3E0B0E0C0
:103540000E945C71DB01AE0FBF1FEC91E150EC9368
:10355000AFE7B2E0E12FF0E0BD01A3E0B0E00E94F0
:103560005C71DB01AE0FBF1FAC91A13081F4AFE7FE
:10357000B2E0E12FF0E0BD01A3E0B0E00E945C7199
:10358000DB01AE0FBF1F1196E8E0F0E00FC0AFE720
:10359000B2E0E12FF0E0BD01A3E0B0E00E945C7179
:1035A000DB01AE0FBF1F1196E0E0F0E0ED93FC935E
:1035B0006AC0E02FE13011F00C942D1BA091C70ED2
:1035C000A13019F5AF81AD3000F5EF81EF5FEF83EA
:1035D000AFE7B2E0E12FF0E0BD01A3E0B0E00E9470
:1035E0005C71E60FF71F3196BF01AE81B0E0A7FD19
:1035F000BFEFE0E0F1E00E948A71DF01EF81F0E0CF
:10360000EA0FFB1FDB01ED93FC93A091C70EA230E4
:1036100019F5AE81AD3704F5EE81EF5FEE83AFE7CC
:10362000B2E0E12FF0E0BD01A3E0B0E00E945C71E8
:10363000E60FF71F3196BF01AE81B0E0A7FDBFEFE7
:10364000E0E0F1E00E948A71DF01EF81F0E0EA0F33
:10365000FB1FDB01ED93FC9316C0E230A1F4A091B7
:10366000C80EAF3080F4E091C80EEF5FE093C80E53
:10367000A091C90EB091CA0EE2E00E948471E0935D
:10368000C90EF093CA0EBBC0EE3B11F00C94FF1BA9
:10369000E1E0E093B10AE091C70EE03011F00C9444
:1036A000951B023010F00C94941BAFE7B2E0E12FB1
:1036B000F0E0BD01A3E0B0E00E945C71DB01AE0F61
:1036C000BF1FEC91EF5FEC93AFE7B2E0E12FF0E0CA
:1036D000BD01A3E0B0E00E945C71DB01AE0FBF1F33
:1036E000AC91A13081F4AFE7B2E0E12FF0E0BD0191
:1036F000A3E0B0E00E945C71DB01AE0FBF1F11962A
:10370000E8E0F0E00FC0AFE7B2E0E12FF0E0BD018C
:10371000A3E0B0E00E945C71DB01AE0FBF1F119609
:10372000E0E0F0E0ED93FC936AC0E02FE13011F0AF
:103730000C94EA1BA091C70EA13019F5AF81A830F7
:1037400000F1EF81E150EF83AFE7B2E0E12FF0E06D
:10375000BD01A3E0B0E00E945C71E60FF71F319657
:10376000BF01AE81B0E0A7FDBFEFE0E0F1E00E9455
:103770008A71DF01EF81F0E0EA0FFB1FDB01ED93BF
:10378000FC93A091C70EA23021F5AE81E3E8EA17C1
:1037900004F5EE81E150EE83AFE7B2E0E12FF0E017
:1037A000BD01A3E0B0E00E945C71E60FF71F319607
:1037B000BF01AE81B0E0A7FDBFEFE0E0F1E00E9405
:1037C0008A71DF01EF81F0E0EA0FFB1FDB01ED936F
:1037D000FC9315C0E23099F4A091C80EA13078F0A6
:1037E000E091C80EE150E093C80EE091C90EF0914F
:1037F000CA0EF695E795E093C90EF093CA0E0E94A3
:103800005A722C9608950E945372E091C60EE030D1
:1038100041F4E0E0E093C70EE093C80EE1E0E093EE
:10382000C60EE0E0EA93EA930E943D12E7EEFCE167
:10383000FA93EA93E1E0EA930E94AA12EAE0EA939B
:10384000E2E0EA930E943D12E1E0FDE1FA93EA939F
:10385000E0E0EA930E94AA1200E010E00830E0E005
:103860001E07B0F4E091C70ED801F0E0EA17FB079D
:1038700011F452E001C050E0E1E0F2E0E00FF11F8E
:10388000E081EA935A930E9442120F5F1F4FE6CFE6
:10389000EDE5EA93E0E0EA930E94421200E010E0D6
:1038A0000430E0E01E0798F5EDE1EA93E02FEC5FCD
:1038B000EA930E943D1220E030E02A30E0E03E072B
:1038C00018F5AAE0A09FF001A19FF00DE20FF31FF1
:1038D000A091C80EB0E0EA17FB0711F451E001C057
:1038E00050E0AAE0A09FF001A19FF00DE20FF31FAE
:1038F000EC55FC4FE491EA935A930E944212439490
:1039000043942F5F3F4FD9CF0F5F1F4FC9CF0E9406
:10391000C9635E2FE52FEE3E61F4A091C70EA13082
:1039200020F0E091C70EE15001C0E7E0E093C70E40
:1039300059C0E63F61F4A091C70EA73020F4E09192
:10394000C70EEF5F01C0E0E0E093C70E4BC0EA3F57
:1039500069F4E0E0E093C70EE093C80EE093C60E72
:103960000E94E663E0E0E093C10E3CC0EC3FF9F456
:10397000A1E0B2E0E091C70EF0E0AE0FBF1FE09112
:10398000C80EF0E0EC55FC4FE491EC93A091C70E0B
:10399000A73020F4E091C70EEF5F01C0E0E0E093B4
:1039A000C70EE1E0E093B10A0E94E6631BC0EE3D62
:1039B00061F4A091C80EA73220F4E091C80EEF5F29
:1039C00001C0E0E0E093C80E0DC0EE3B59F4A091B9
:1039D000C80EA13020F0E091C80EE15001C0E7E22E
:1039E000E093C80E0E945A72269608951A930A937D
:1039F000E0E0EA93EA930E943D12E9E0FDE1FA93E8
:103A0000EA93E1E0EA930E94AA1200E010E0073096
:103A1000E0E01E0710F00C94691DE0E0EA93E02F4F
:103A2000EF5FEA930E943D12AAE0A09FF001A19FE0
:103A3000F00DE459FD4FFA93EA93E0E0EA930E9417
:103A4000AA12E0E2EA93E0E0EA930E944212F8014F
:103A5000ABEDB7E0EE0FFF1FAE0FBF1F0E94FF716F
:103A6000FA93EA93E4E0EA93E0E0EA930E94BD125D
:103A7000E0E2EA93E0E0EA930E944212F801ADEC42
:103A8000B7E0EE0FFF1FAE0FBF1F0E94FF71FA934A
:103A9000EA93E4E0EA93E0E0EA930E94BD12E0E2F8
:103AA000EA93E0E0EA930E944212F801A9EEB7E03F
:103AB000EE0FFF1FAE0FBF1F0E94FF71FA93EA9334
:103AC000E4E0EA93E0E0EA930E94BD120F5F1F4F2B
:103AD0009ECF0E94C9630E2F1127F801EA3FA0E094
:103AE000FA0729F40E94E663E0E0E093C10E099131
:103AF0001991089524970E945372E0E0EA93EA93A3
:103B00000E943D12E3E2FDE1FA93EA93E1E0EA93D9
:103B10000E94AA12E0E0EA93EAE0EA93EFE7EA9370
:103B2000EAE0EA93E1E0EA930E943B15E091CB0ED4
:103B3000E030A1F510E0173070F5E12FABEDB7E004
:103B4000F0E0EE0FFF1FEA0FFB1F0F01E12FACEFBC
:103B5000B7E0F0E0EE0FFF1FAE0FBF1F0E94FF7136
:103B6000D001ED93FC93E12FA9EEB7E0F0E0EE0F6A
:103B7000FF1FEA0FFB1F0F01E12FACEFB7E0F0E0F2
:103B8000EE0FFF1FAE0FBF1F0E94FF71D001ED931C
:103B9000FC931F5FD0CFE1E0E093CB0EA091CB0E62
:103BA000A13011F00C94072020E010E0173010F045
:103BB0000C94291FE12FABEDB7E0F0E0EE0FFF1FF3
:103BC000AE0FBF1F0D901C90E12FACEFB7E0F0E0FF
:103BD000EE0FFF1FAE0FBF1F0E94FF71E015F10532
:103BE000B0F4E12FABEDB7E0F0E0EE0FFF1FEA0F0E
:103BF000FB1F0F01E12FACEFB7E0F0E0EE0FFF1F6E
:103C0000AE0FBF1F0E94FF71D001ED93FC93E12F17
:103C1000A9EEB7E0F0E0EE0FFF1FAE0FBF1F0D9053
:103C20001C90E12FACEFB7E0F0E0EE0FFF1FAE0FFE
:103C3000BF1F0E94FF710E161F06B0F4E12FA9EE00
:103C4000B7E0F0E0EE0FFF1FEA0FFB1F0F01E12FBF
:103C5000ACEFB7E0F0E0EE0FFF1FAE0FBF1F0E940A
:103C6000FF71D001ED93FC93A1E11A9FF001DF01F8
:103C7000EF5FEA93ECE0EA93FD01E65FEA93EAE2A4
:103C8000EA93E1E0EA930E94B215A1E11A9FF001E4
:103C9000ED5FEA93E6E0EA930E943D12E12FE05DDA
:103CA000EA93E1E0EA930E944212E12FACEFB7E021
:103CB000F0E0EE0FFF1FAE0FBF1F0D901C90E12F25
:103CC000ABEDB7E0F0E0EE0FFF1FAE0FBF1F0E949D
:103CD000FF71D001AE1BBF0BAD01ACE1A49FF001A1
:103CE000A59FF00DAF01E12FA9EEB7E0F0E0EE0FD8
:103CF000FF1FAE0FBF1F0D901C90E12FABEDB7E083
:103D0000F0E0EE0FFF1FAE0FBF1F0E94FF71DF013B
:103D1000F001EA1BFB0BDA010E94A271AF01E42F54
:103D2000E35F3E2F3B3278F4A1E11A9FF001DF01FF
:103D3000EF5FEA933A93FD01E65FEA933A93E1E09D
:103D4000EA930E943B15E12FA9EEB7E0F0E0EE0FF9
:103D5000FF1FAE0FBF1F0D901C90E12FABEDB7E022
:103D6000F0E0EE0FFF1FAE0FBF1F0E94FF71D001EA
:103D7000AE1BBF0BFD01F695E795E887F987E12FAC
:103D8000ACEFB7E0F0E0EE0FFF1FAE0FBF1F0D90DE
:103D90001C90E12FABEDB7E0F0E0EE0FFF1FAE0F90
:103DA000BF1F0E94FF71D001AE1BBF0BAE83BF834C
:103DB000A885B985EBE60E948471DF01E4E6F0E0B6
:103DC0000E94A271AE81BF81AE17BF0778F4A885AB
:103DD000B985E4E60E948471DF01EBE6F0E00E9421
:103DE000A271AE81BF81EA17FB0708F015C0032F4F
:103DF0000A3288F4A1E11A9FF001DF01EF5FEA9334
:103E00000A93FD01E65FEA930A93E1E0EA930E94D8
:103E10003B150F5FEDCF2F5FA1E11A9FF001EF5F20
:103E2000EA93E7E0EA930E943D12E12FACEFB7E09E
:103E3000F0E0EE0FFF1FAE0FBF1F0E94FF71FA935D
:103E4000EA93E3E0EA93E0E0EA930E94BD121F5F89
:103E5000ADCE0E94C9630E2FE02FEC3F11F00C9401
:103E6000B31F0E94E66310E0173010F00C94921F0D
:103E7000E12FADECB7E0F0E0EE0FFF1FEA0FFB1F04
:103E80000F01E12FACEFB7E0F0E0EE0FFF1FAE0F38
:103E9000BF1F0E94FF71D001ED93FC93E12FAEE0B4
:103EA000B0E0F0E0EE0FFF1FEA0FFB1F0F01E12F64
:103EB000ABEDB7E0F0E0EE0FFF1FAE0FBF1F0E94AB
:103EC000FF71D0010E942772E12FA0E0B0E0F0E086
:103ED000EE0FFF1FEA0FFB1F0F01E12FADECB7E064
:103EE000F0E0EE0FFF1FAE0FBF1F0E94FF71D00169
:103EF0000E942772E12FACE1B0E0F0E0EE0FFF1F6F
:103F0000EA0FFB1F0F01E12FA9EEB7E0F0E0EE0F83
:103F1000FF1FAE0FBF1F0E94FF71D0010E942772CA
:103F20001F5FA2CFEDE3FDE1E0933B08F0933C0877
:103F3000E7E5FDE1E0933D08F0933E08E5EDFBE1A8
:103F4000E0933F08F0934008E5EDFBE1E093410882
:103F5000F0934208E1E0E0934608E0E0E093CB0E06
:103F6000E093C10E54C0EA3F11F00C94072010E01A
:103F7000173010F00C940020E12FABEDB7E0F0E02B
:103F8000EE0FFF1FEA0FFB1F0F01E12FAEE0B0E0C5
:103F9000F0E0EE0FFF1FAE0FBF1F0E941772D0019F
:103FA000ED93FC93E12FADECB7E0F0E0EE0FFF1FD7
:103FB000EA0FFB1F0F01E12FA0E0B0E0F0E0EE0FF1
:103FC000FF1FAE0FBF1F0E941772D001ED93FC932D
:103FD000E12FA9EEB7E0F0E0EE0FFF1FEA0FFB1FA5
:103FE0000F01E12FACE1B0E0F0E0EE0FFF1FAE0FEC
:103FF000BF1F0E941772D001ED93FC931F5FB8CFD3
:10400000E0E0E093CB0EE093C10E0E94E6630E94D5
:104010005A722A960895629782E1A0E0B0E0EAEA37
:10402000FBE10E9461720E94557210E0193010F09D
:104030000C947E20E12FF0E0DE011D96AE0FBF1F35
:104040000C90DE011496AE0FBF1FAC91E02DEA1B61
:10405000F0E0E7FDFFEF9F01ACEBB2E0EF89F0E0AD
:10406000BD01A1EAB1E00E945C71DB01AE0FBF1F90
:104070009996EE89F0E0BD01ABE0B0E00E945C7182
:10408000DB01AE0FBF1F1A96EC91D901F0E0E7FDFE
:10409000FFEF0E948A719F01D901E4E6F0E00E94DF
:1040A000B5719F01E12FF0E0DE011D96AE0FBF1F3D
:1040B000AC91B0E0A7FDBFEFA21BB30B9D01ACEB31
:1040C000B2E0EF89F0E0BD01A1EAB1E00E945C71CD
:1040D000DB01AE0FBF1F9996EE89F0E0BD01ABE0AA
:1040E000B0E00E945C71DB01AE0FBF1F1196E12FA3
:1040F000F0E0EA0FFB1F20831F5F98CF0E945C72E5
:104100006896089523970E94537210E0E091C60EBE
:10411000E03081F4E0E0E093C70EE093C80EE09356
:10412000C90EE093CA0EE093CC0EE1E0E093C60E18
:10413000E093B10AEC2DE03711F410E007C0E53749
:1041400011F411E003C0EA3709F412E0E0E0EA9369
:10415000EA930E943D12E1E7FDE1FA93EA93E1E080
:10416000EA930E94AA12E0E0EA93E1E0EA930E9457
:104170003D12EBE8FDE1FA93EA93E0E0EA930E9456
:10418000AA12E12FEF5CEA93E0E0EA930E94421268
:10419000E091C70EE03011F401E001C000E0E0E082
:1041A000EA93E2E0EA930E943D12E4E9FDE1FA932A
:1041B000EA930A930E94AA12013011F402E001C0AE
:1041C00000E0A091C90EB091CA0E199720F4E091B9
:1041D000C90EEF5C03C0E091C90EE85C2E2F2A9354
:1041E0000A930E944212A091C70EA13011F401E07F
:1041F00001C000E0E0E0EA93E3E0EA930E943D12B0
:10420000EEE9FDE1FA93EA930A930E94AA120130C3
:1042100011F402E001C000E0ACEBB2E0E12FF0E00D
:10422000BD01A1EAB1E00E945C71DB01AE0FBF1FCE
:104230009996E091C90EF091CA0EBD01ABE0B0E0D5
:104240000E945C71DB01AE0FBF1FEC91E03019F4EE
:10425000E6EAFDE104C0E13039F4EBEAFDE1FA936E
:10426000EA930A930E94AA12ACEBB2E0E12FF0E0CD
:10427000BD01A1EAB1E00E945C71DB01AE0FBF1F7E
:104280009996E091C90EF091CA0EBD01ABE0B0E085
:104290000E945C71DB01AE0FBF1FAC91A13011F029
:1042A0000C941223A091C70EA23011F401E001C0BA
:1042B00000E0E0E0EA93E4E0EA930E943D12EFEAD6
:1042C000FDE1FA93EA930A930E94AA12ACEBB2E0E2
:1042D000E12FF0E0BD01A1EAB1E00E945C71DB01D9
:1042E000AE0FBF1F9996E091C90EF091CA0EBD01A5
:1042F000ABE0B0E00E945C71DB01AE0FBF1F1A960D
:104300003C91013011F402E001C000E030303CF497
:10431000EDE2EA930A930E944212319505C0EBE266
:10432000EA930A930E944212E32FF0E0E7FDFFEFC9
:10433000FA93EA93E3E0EA930A930E94BD12E5E25E
:10434000EA930A930E944212A091C70EA33011F47F
:1043500001E001C000E0E0E0EA93E5E0EA930E94BA
:104360003D12E8EBFDE1FA93EA930A930E94AA1248
:10437000013011F402E001C000E0E091CC0EE03029
:1043800019F4E1ECFDE127C0E13019F4E7ECFDE1BF
:1043900022C0E23019F4EDECFDE11DC0E33019F468
:1043A000E3EDFDE118C0E43019F4E9EDFDE113C0DF
:1043B000E53019F4EFEDFDE10EC0E63019F4E5EE5D
:1043C000FDE109C0E73019F4EBEEFDE104C0E8308F
:1043D00039F4E1EFFDE1FA93EA930A930E94AA12FD
:1043E000A091C70EA43011F401E001C000E0E0E0AC
:1043F000EA93E6E0EA930E943D12E7EFFDE1FA93CB
:10440000EA930A930E94AA12ACEBB2E0E12FF0E02B
:10441000BD01A1EAB1E00E945C71DB01AE0FBF1FDC
:104420009996E091C90EF091CA0EBD01ABE0B0E0E3
:104430000E945C71DB01AE0FBF1F1196E091CC0EA4
:10444000F0E0AE0FBF1F3C91013011F402E001C05B
:1044500000E030303CF4EDE2EA930A930E9442120D
:10446000319505C0EBE2EA930A930E944212E32FD2
:10447000F0E0E7FDFFEFFA93EA93E3E0EA930A93B3
:104480000E94BD12E5E2EA930A930E94421200E004
:104490000930A0F5E8E4EA93A5E00A9FF001E45FA3
:1044A000EA93E0E7EA930A9FF001E45FEA930E944F
:1044B0009F14A091CC0E0A1789F4A5E00A9FF00181
:1044C000E85BAE2FEA93ECE0EA93EA2FEA93E4E3A9
:1044D000EA93E1E0EA930E943B150EC0A5E00A9F33
:1044E000F001E85BAE2FEA93ECE0EA93EA2FEA935F
:1044F000E4E3EA930E949F140F5FCACFE8E4EA93D3
:10450000E0E2EA93E0E7EA93E0E2EA93E1E0EA93AB
:104510000E943B15ECE9EE8358E4ACEBB2E0E12FEE
:10452000F0E0BD01A1EAB1E00E945C71DB01AE0FD9
:10453000BF1F9996E091C90EF091CA0EBD01ABE084
:10454000B0E00E945C71DB01AE0FBF1F11963C9181
:10455000A32FE5E00E949D71A0E2AE1B4A2FEE81E1
:10456000E75EEE8301E0093010F00C941223EE8137
:10457000EC3911F4E8E41FC0E53B11F4EDE41BC095
:10458000EE3C11F4E2E517C0E73E11F4E7E513C095
:10459000E03011F4ECE50FC0E93111F4E1E60BC0B5
:1045A000E23311F4E6E607C0EB3411F4EBE603C0A6
:1045B000E43611F4E0E7E887ACEBB2E0E12FF0E09D
:1045C000BD01A1EAB1E00E945C71DB01AE0FBF1F2B
:1045D0009996E091C90EF091CA0EBD01ABE0B0E032
:1045E0000E945C71DB01AE0FBF1F1196EE27A00F7A
:1045F000BE1F3C91A32FE5E00E949D71A0E2AE1B7F
:10460000AF835A934A93EA85EA93EA85EA93E1E015
:10461000EA930E943B1558854F81EE81E75EEE8359
:104620000F5FA1CF0E94C9630E2FE02FEE3E51F421
:10463000A091C70EA13028F0E091C70EE150E093A1
:10464000C70E66C2E63FA1F5ACEBB2E0E12FF0E0A9
:10465000BD01A1EAB1E00E945C71DB01AE0FBF1F9A
:104660009996E091C90EF091CA0EBD01ABE0B0E0A1
:104670000E945C71DB01AE0FBF1FAC91A13061F4F1
:10468000A091C70EA43020F4E091C70EEF5F01C0E7
:10469000E0E0E093C70E0BC0A091C70EA13020F45C
:1046A000E091C70EEF5F01C0E0E0E093C70E30C2BB
:1046B000EA3FA9F4E0E0E093C70EE093C80EE09370
:1046C000C90EE093CA0EE093CC0EE093C60E0E9492
:1046D000E663E0E0E093C10E0E948D5D19C2EC3FFD
:1046E00019F40E94E66314C2EE3D11F00C9480248C
:1046F000E091C70EE030A1F4E0910D02E150A091ED
:10470000C90EB091CA0EF0E0AE17BF0740F4A9EC95
:10471000BEE0ED91FD913196FE93EE933197EFC09F
:10472000E13011F00C94E723ACEBB2E0E12FF0E0C4
:10473000BD01A1EAB1E00E945C71DB01AE0FBF1FB9
:104740009996E091C90EF091CA0EBD01ABE0B0E0C0
:104750000E945C71DB01AE0FBF1FAC91A130D9F498
:10476000ACEBB2E0E12FF0E0BD01A1EAB1E00E94C4
:104770005C71DB01AE0FBF1F9996E091C90EF091FD
:10478000CA0EBD01ABE0B0E00E945C71DB01AE0F70
:10479000BF1FE0E01AC0ACEBB2E0E12FF0E0BD01DA
:1047A000A1EAB1E00E945C71DB01AE0FBF1F9996D8
:1047B000E091C90EF091CA0EBD01ABE0B0E00E94DD
:1047C0005C71DB01AE0FBF1FE1E0EC9398C0E230FB
:1047D00011F00C942B24ACEBB2E0E12FF0E0BD0122
:1047E000A1EAB1E00E945C71DB01AE0FBF1F999698
:1047F000E091C90EF091CA0EBD01ABE0B0E00E949D
:104800005C71DB01AE0FBF1F1A96AC91A43614F594
:10481000ACEBB2E0E12FF0E0BD01A1EAB1E00E9413
:104820005C71DB01AE0FBF1F9996E091C90EF0914C
:10483000CA0EBD01ABE0B0E00E945C71DB01AE0FBF
:10484000BF1F1A96EC91EF5FEC931A93E091C90E9B
:10485000EA93E1DB54C0E33051F4A091CC0EA830D0
:1048600028F4E091CC0EEF5FE093CC0E48C0E4302A
:1048700011F00C947F24ACEBB2E0E12FF0E0BD012D
:10488000A1EAB1E00E945C71DB01AE0FBF1F9996F7
:10489000E091C90EF091CA0EBD01ABE0B0E00E94FC
:1048A0005C71DB01AE0FBF1F1196E091CC0EF0E002
:1048B000AE0FBF1FAC91A43614F5ACEBB2E0E12F04
:1048C000F0E0BD01A1EAB1E00E945C71DB01AE0F36
:1048D000BF1F9996E091C90EF091CA0EBD01ABE0E1
:1048E000B0E00E945C71DB01AE0FBF1F1196E0913A
:1048F000CC0EF0E0AE0FBF1FEC91EF5FEC9308C160
:10490000EE3B11F00C948825E091C70EE03079F46D
:10491000A091C90EB091CA0E0E944A7238F4A9EC57
:10492000BEE0ED91FD913197FE93EE93F1C0E13041
:1049300011F00C94EE24ACEBB2E0E12FF0E0BD01FD
:10494000A1EAB1E00E945C71DB01AE0FBF1F999636
:10495000E091C90EF091CA0EBD01ABE0B0E00E943B
:104960005C71DB01AE0FBF1FAC91A130D9F4ACEB91
:10497000B2E0E12FF0E0BD01A1EAB1E00E945C717C
:10498000DB01AE0FBF1F9996E091C90EF091CA0EE0
:10499000BD01ABE0B0E00E945C71DB01AE0FBF1F58
:1049A000E0E01AC0ACEBB2E0E12FF0E0BD01A1EA1B
:1049B000B1E00E945C71DB01AE0FBF1F9996E091E0
:1049C000C90EF091CA0EBD01ABE0B0E00E945C716F
:1049D000DB01AE0FBF1FE1E0EC939AC0E23011F0B3
:1049E0000C943325ACEBB2E0E12FF0E0BD01A1EA7D
:1049F000B1E00E945C71DB01AE0FBF1F9996E091A0
:104A0000C90EF091CA0EBD01ABE0B0E00E945C712E
:104A1000DB01AE0FBF1F1A96AC91ECE9EA1714F553
:104A2000ACEBB2E0E12FF0E0BD01A1EAB1E00E9401
:104A30005C71DB01AE0FBF1F9996E091C90EF0913A
:104A4000CA0EBD01ABE0B0E00E945C71DB01AE0FAD
:104A5000BF1F1A96EC91E150EC931A93E091C90EA6
:104A6000EA93D9DA55C0E33051F4A091CC0EA130CD
:104A700028F0E091CC0EE150E093CC0E49C0E43038
:104A800011F00C948825ACEBB2E0E12FF0E0BD0111
:104A9000A1EAB1E00E945C71DB01AE0FBF1F9996E5
:104AA000E091C90EF091CA0EBD01ABE0B0E00E94EA
:104AB0005C71DB01AE0FBF1F1196E091CC0EF0E0F0
:104AC000AE0FBF1FAC91ECE9EA1714F5ACEBB2E006
:104AD000E12FF0E0BD01A1EAB1E00E945C71DB01D1
:104AE000AE0FBF1F9996E091C90EF091CA0EBD019D
:104AF000ABE0B0E00E945C71DB01AE0FBF1F11960E
:104B0000E091CC0EF0E0AE0FBF1FEC91E150EC93C2
:104B10000E945A722996089529970E945372ACEB0D
:104B2000B2E0E889F0E0BD01A1EAB1E00E945C7169
:104B3000DB01AE0FBF1FA752BF4FEF85F0E0BD01F5
:104B4000A5E0B0E00E945C71DB01AE0FBF1F0E94C8
:104B5000FF71E1701E2FACEBB2E0E889F0E0BD011F
:104B6000A1EAB1E00E945C71DB01AE0FBF1FA7524A
:104B7000BF4FEF85F0E0BD01A5E0B0E00E945C71A1
:104B8000DB01AE0FBF1F0E94FF710E944F71E170E9
:104B90000E2FACEBB2E0E889F0E0BD01A1EAB1E094
:104BA0000E945C71DB01AE0FBF1FA752BF4FEF85A4
:104BB000F0E0BD01A5E0B0E00E945C71DB01AE0F4A
:104BC000BF1F0E94FF71F695E7950E944D71E77037
:104BD000E95F3E2FACEBB2E0E889F0E0BD01A1EA6D
:104BE000B1E00E945C71DB01AE0FBF1FA752BF4F47
:104BF000EF85F0E0BD01A5E0B0E00E945C71DB0153
:104C0000AE0FBF1F0E94FF710E944D71E1702E2FE9
:104C1000ACEBB2E0E889F0E0BD01A1EAB1E00E94AE
:104C20005C71DB01AE0FBF1FA752BF4FEF85F0E0F5
:104C3000BD01A5E0B0E00E945C71DB01AE0FBF1FBB
:104C400012960E94FF710E944D71EF705E2FACEBC7
:104C5000B2E0E889F0E0BD01A1EAB1E00E945C7138
:104C6000DB01AE0FBF1FA752BF4FEF85F0E0BD01C4
:104C7000A5E0B0E00E945C71DB01AE0FBF1F0E9497
:104C8000FF71F695E795E170EE87ACEBB2E0E8894D
:104C9000F0E0BD01A1EAB1E00E945C71DB01AE0F62
:104CA000BF1FA752BF4FEF85F0E0BD01A5E0B0E008
:104CB0000E945C71DB01AE0FBF1F12960E94FF7154
:104CC000EF704E2FACEBB2E0E889F0E0BD01A1EA55
:104CD000B1E00E945C71DB01AE0FBF1FA752BF4F56
:104CE000EF85F0E0BD01A5E0B0E00E945C71DB0162
:104CF000AE0FBF1F0E94FF710E945171E170ED87DE
:104D0000ACEBB2E0E889F0E0BD01A1EAB1E00E94BD
:104D10005C71DB01AE0FBF1FA752BF4FEF85F0E004
:104D2000BD01A5E0B0E00E945C71DB01AE0FBF1FCA
:104D30001496EC91EC87ACEBB2E0E889F0E0BD01B1
:104D4000A1EAB1E00E945C71DB01AE0FBF1FA75268
:104D5000BF4FEF85F0E0BD01A5E0B0E00E945C71BF
:104D6000DB01AE0FBF1F1496EC91EF70EA87ACEB3E
:104D7000B2E0E889F0E0BD01A1EAB1E00E945C7117
:104D8000DB01AE0FBF1FA752BF4FEF85F0E0BD01A3
:104D9000A5E0B0E00E945C71DB01AE0FBF1F14966E
:104DA000EC91E07111F0E1E001C0E0E0E987E09111
:104DB000C90EF091CA0E309711F4E1E001C0E0E0B5
:104DC000E887E0E0EA93E2E0EA930E943D12E0E047
:104DD000FEE1FA93EA93EA85EA930E94AA12A88573
:104DE000A13049F4A091CC0EA13011F4E2E001C051
:104DF000E1E0EF8302C0E0E0EF83113019F4ECEA68
:104E0000FDE102C0E7EAFDE1FA93EA93E985EA935E
:104E10000E94AA12A091C90EB091CA0E119711F466
:104E2000E1E001C0E0E0E887E0E0EA93E3E0EA9354
:104E30000E943D12E0ECFCE1FA93EA93EA85EA93E2
:104E40000E94AA12A885A13049F4A091CC0EA130ED
:104E500011F4E2E001C0E1E0EF8302C0E0E0EF83A3
:104E6000003019F4E7EAFDE13CC0E9E0FEE1FA9325
:104E7000EA93E985EA930E94AA12A885A13049F431
:104E8000A091CC0EA23011F4E2E001C0E1E0EF838A
:104E900002C0E0E0EF83213019F4EDE0FEE102C052
:104EA000EFE0FEE1FA93EA93E985EA930E94AA1201
:104EB000E0E2EA93E985EA930E944212A885A130D4
:104EC00049F4A091CC0EA33011F4E2E001C0E1E07E
:104ED000EF8302C0E0E0EF83A5E03A9FF001E453E6
:104EE000FC4FFA93EA93E985EA930E94AA12A091F3
:104EF000C90EB091CA0E129711F4E1E001C0E0E0D2
:104F0000E887E0E0EA93E4E0EA930E943D12E1E101
:104F1000FEE1FA93EA93EA85EA930E94AA12A88531
:104F2000A13049F4A091CC0EA13011F4E2E001C00F
:104F3000E1E0EF8302C0E0E0EF83593018F4E52FA1
:104F4000EF5C02C0E52FE85CEE83EA93E885EA9324
:104F50000E944212A091C90EB091CA0E139711F48B
:104F6000E1E001C0E0E0E887E0E0EA93E5E0EA9311
:104F70000E943D12EAE1FEE1FA93EA93EA85EA93A0
:104F80000E94AA12EE85E03081F5A885A13049F48F
:104F9000A091CC0EA13011F4E2E001C0E1E0EF837A
:104FA00002C0E0E0EF83E3E2FEE1FA93EA93E985F1
:104FB000EA930E94AA12A885A13049F4A091CC0ED0
:104FC000A23011F4E2E001C0E1E0EF8302C0E0E0D2
:104FD000EF83A5E04A9FF001E453FC4FFA93EA9374
:104FE000E985EA930E94AA1231C0A885A13049F44C
:104FF000A091CC0EA13011F4E2E001C0E1E0EF831A
:1050000002C0E0E0EF83E8E2FEE1FA93EA93E9858B
:10501000EA930E94AA12A885A13049F4A091CC0E6F
:10502000A23011F4E2E001C0E1E0EF8302C0E0E071
:10503000EF83493018F4E42FEF5C02C0E42FE85C02
:10504000EE83EA93E885EA930E944212A091C90E8A
:10505000B091CA0E149711F4E1E001C0E0E0E887D6
:10506000E0E0EA93E6E0EA930E943D12EDE2FEE121
:10507000FA93EA93EA85EA930E94AA12A885A130DE
:1050800049F4A091CC0EA13011F4E2E001C0E1E0BE
:10509000EF8302C0E0E0EF83ED85E030B1F5E5E3BA
:1050A000FEE1FA93EA93E985EA930E94AA12A885A1
:1050B000A13049F4A091CC0EA23011F4E2E001C07D
:1050C000E1E0EF8302C0E0E0EF83AC85A0304CF478
:1050D000EDE2EA93E885EA930E944212EC85E195BD
:1050E00007C0EBE2EA93E885EA930E944212EC855E
:1050F000EB87F0E0E7FDFFEFFA93EA93E3E0EA9352
:10510000EA85EA930E94BD1241C0E3E2FEE1FA9310
:10511000EA93E985EA930E94AA12A885A13049F48E
:10512000A091CC0EA23011F4E2E001C0E1E0EF83E7
:1051300002C0E0E0EF83E985E03011F0EDE201C06C
:10514000EBE2EA93E885EA930E944212E0E2EA93F6
:10515000E985EA930E944212A885A13049F4A09102
:10516000CC0EA33011F4E2E001C0E1E0EF8302C015
:10517000E0E0EF83EA85A5E0EA9FF001E453FC4F0D
:10518000FA93EA93E985EA930E94AA120E94C963FE
:10519000E887EE3E11F00C947129E091CC0EE030DE
:1051A00079F4A091C90EB091CA0E0E944A7238F4E7
:1051B000A9ECBEE0ED91FD913197FE93EE9390C086
:1051C000E130D1F5E091C90EF091CA0E309731F47B
:1051D000103011F411E001C010E02DC0E130A0E06A
:1051E000FA0731F4003011F401E001C000E023C0FF
:1051F000E230A0E0FA0739F4E0910D02E1505E17C9
:1052000008F45F5F18C0E330A0E0FA0749F4EE85C8
:10521000E03011F4E1E001C0E0E0EE8740E00BC0D7
:10522000E430A0E0FA0739F4ED85E03011F4E1E074
:1052300001C0E0E0ED8754C0E230D1F5E091C90E45
:10524000F091CA0EE130A0E0FA0731F4203011F4F9
:1052500021E001C020E02BC0E330A0E0FA0791F488
:10526000AE85A13049F4E0910D02E1504E1710F4E3
:105270004F5F01C040E005C04D3010F44F5F01C0EA
:1052800040E015C0E430A0E0FA0789F4ED85E03095
:1052900039F4AC85AD371CF4EC85EF5FEC8707C0C3
:1052A000E985E03011F4E1E001C0E0E0E98718C0F1
:1052B000E330B1F4E091C90EF091CA0EE130A0E004
:1052C000FA0721F43D3008F43F5F0AC0E430A0E063
:1052D000FA0731F4AA85AD3018F4EA85EF5FEA8762
:1052E000A3C1E63F11F00C94142AE091CC0EE030FB
:1052F00071F4A091C90EB091CA0E149738F4A9ECBC
:10530000BEE0ED91FD913196FE93EE938CC0E130BD
:10531000E1F5E091C90EF091CA0E309731F41030EA
:1053200011F411E001C010E02FC0E130A0E0FA0755
:1053300031F4003011F401E001C000E025C0E2309A
:10534000A0E0FA0721F4513008F051501DC0E330BD
:10535000A0E0FA0751F4EE85E03019F4E1E0EE87C1
:1053600003C0E0E0EE8740E00FC0E430A0E0FA07C1
:1053700059F4ED85E03021F4E1E0ED87E0E003C091
:10538000E0E0ED87E4E6EC874EC0E230A1F5E09185
:10539000C90EF091CA0EE130A0E0FA0731F42030D6
:1053A00011F421E001C020E025C0E330A0E0FA07BD
:1053B00059F4413008F04150AE85A03011F44E3020
:1053C00008F401C040E016C0E430A0E0FA0791F410
:1053D000ED85E03041F4AC85E3E8EA171CF4EC8598
:1053E000E150EC8707C0E985E03011F4E1E001C04D
:1053F000E0E0E98718C0E330B1F4E091C90EF09124
:10540000CA0EE130A0E0FA0721F4383008F031503C
:105410000AC0E430A0E0FA0731F4AA85A13018F000
:10542000EA85E150EA8700C1EA3FD9F4E0E0E09381
:10543000C80E0E94E663E0914708EA930E94C859AB
:10544000E0917E02A0919F070E948F71E093A007D8
:10545000E0917E02A0919F070E94DF71E093A10777
:10546000E3C0EC3F11F00C94A42AE091C90EF09136
:10547000CA0E309761F4A091CC0EA13020F4E091D7
:10548000CC0EEF5F01C0E0E0E093CC0E5CC0E130F9
:10549000A0E0FA07D1F4003061F4A091CC0EA13065
:1054A00020F4E091CC0EEF5F01C0E0E0E093CC0E81
:1054B0000BC0A091CC0EA33020F4E091CC0EEF5F96
:1054C00001C0E0E0E093CC0E3EC0E230A0E0FA077D
:1054D00061F4A091CC0EA13020F4E091CC0EEF5FEE
:1054E00001C0E0E0E093CC0E2EC0E330A0E0FA076C
:1054F00061F4A091CC0EA23020F4E091CC0EEF5FCD
:1055000001C0E0E0E093CC0E1EC0E430A0E0FA075A
:10551000D1F4ED85E03061F4A091CC0EA23020F4FE
:10552000E091CC0EEF5F01C0E0E0E093CC0E0BC049
:10553000A091CC0EA33020F4E091CC0EEF5F01C01F
:10554000E0E0E093CC0E70C0EE3D11F00C94092B1E
:10555000E091C90EF091CA0E309751F4A091CC0E93
:10556000A13028F4E091CC0EEF5FE093CC0E50C058
:10557000E130A0E0FA07B1F4003051F4A091CC0E74
:10558000A13028F4E091CC0EEF5FE093CC0E09C07F
:10559000A091CC0EA33028F4E091CC0EEF5FE09305
:1055A000CC0E36C0E230A0E0FA0751F4A091CC0E48
:1055B000A13028F4E091CC0EEF5FE093CC0E28C030
:1055C000E330A0E0FA0751F4A091CC0EA23028F409
:1055D000E091CC0EEF5FE093CC0E1AC0E430A0E077
:1055E000FA07B1F4ED85E03051F4A091CC0EA23071
:1055F00028F4E091CC0EEF5FE093CC0E09C0A091AF
:10560000CC0EA33028F4E091CC0EEF5FE093CC0EEB
:105610000BC0EE3B49F4A091CC0EA13028F0E091F4
:10562000CC0EE150E093CC0E103021F4A091C80EC6
:10563000A03009F042C0EF85EE83AE81A83210F0B1
:105640000C945C2BACEBB2E0E889F0E0BD01A1EA80
:10565000B1E00E945C71DB01AE0FBF1FA752BF4FCC
:10566000EE81F0E0BD01A5E0B0E00E945C71E60FC4
:10567000F71FFF93EF93ACEBB2E0E889F0E0BD01D8
:10568000A1EAB1E00E945C71DB01AE0FBF1FA7521F
:10569000BF4FEE81EF5FF0E0BD01A5E0B0E00E94FA
:1056A0005C71E60FF71FAF91BF9185E00E944072D9
:1056B000EE81EF5FEE83C1CF47C1ACEBB2E0E8898A
:1056C000F0E0BD01A1EAB1E00E945C71DB01AE0F28
:1056D000BF1FA752BF4FEF85F0E0BD01A5E0B0E0CE
:1056E0000E945C71DB01AE0FBF1FE12FE1700E2E37
:1056F000EC91EE7FE029EC93ACEBB2E0E889F0E0CE
:10570000BD01A1EAB1E00E945C71DB01AE0FBF1FD9
:10571000A752BF4FEF85F0E0BD01A5E0B0E00E94C9
:105720005C71DB01AE0FBF1FE02FE170EE0FEE0FDB
:10573000EE0F0E2EEC91E77FE029EC93ACEBB2E09C
:10574000E889F0E0BD01A1EAB1E00E945C71DB01F3
:10575000AE0FBF1FA752BF4FEF85F0E0BD01A5E020
:10576000B0E00E945C71DB01AE0FBF1FE32FE7507A
:10577000E770E295E07FEE0F0E2EEC91EF71E029DD
:10578000EC93ACEBB2E0E889F0E0BD01A1EAB1E056
:105790000E945C71DB01AE0FBF1FA752BF4FEF85A8
:1057A000F0E0BD01A5E0B0E00E945C71DB01AE0F4E
:1057B000BF1FE22FE170E295E07F0E2EEC91EF7EAD
:1057C000E029EC93ACEBB2E0E889F0E0BD01A1EA9E
:1057D000B1E00E945C71DB01AE0FBF1FA752BF4F4B
:1057E000EF85F0E0BD01A5E0B0E00E945C71DB0157
:1057F000AE0FBF1F1296E52FEF70E295E07F0E2EE1
:10580000EC91EF70E029EC93ACEBB2E0E889F0E0CA
:10581000BD01A1EAB1E00E945C71DB01AE0FBF1FC8
:10582000A752BF4FEF85F0E0BD01A5E0B0E00E94B8
:105830005C71DB01AE0FBF1FEE85E170EE0F0E2E27
:10584000EC91ED7FE029EC93ACEBB2E0E889F0E07D
:10585000BD01A1EAB1E00E945C71DB01AE0FBF1F88
:10586000A752BF4FEF85F0E0BD01A5E0B0E00E9478
:105870005C71DB01AE0FBF1F1296E42FEF700E2E8E
:10588000EC91E07FE029EC93ACEBB2E0E889F0E04A
:10589000BD01A1EAB1E00E945C71DB01AE0FBF1F48
:1058A000A752BF4FEF85F0E0BD01A5E0B0E00E9438
:1058B0005C71DB01AE0FBF1FED85E170EE0FEE0FE7
:1058C0000E2EEC91EB7FE029EC93ED85E030D9F4DE
:1058D000ACEBB2E0E889F0E0BD01A1EAB1E00E94E2
:1058E0005C71DB01AE0FBF1FA752BF4FEF85F0E029
:1058F000BD01A5E0B0E00E945C71E60FF71F349691
:10590000AC85A08321C0ACEBB2E0E889F0E0BD013A
:10591000A1EAB1E00E945C71DB01AE0FBF1FA7528C
:10592000BF4FEF85F0E0BD01A5E0B0E00E945C71E3
:10593000E60FF71F3496BF01E985A0E1EA9FF00169
:10594000AA85EA0FDB01EC930E945A7261960895D2
:105950002F970E945372E091C60EE03081F4E0E090
:10596000E093C70EE093C80EE093C90EE093CA0E11
:10597000E093CC0EE1E0E093C60EE093B10AEC2D8B
:10598000E13711F410E007C0E63711F411E003C06D
:10599000EB3709F412E0E0E0EA93EA930E943D124B
:1059A000EAE3FEE1FA93EA93E1E0EA930E94AA12A5
:1059B000A091C80EA33011F00C94E32D20E022300A
:1059C00010F00C94CD2D50E0543010F00C94CB2DF1
:1059D000E22FEE0FEE0FE50FAE2FE0917E02AE1735
:1059E00010F00C94C92DACE32A9FF001E65FEA9316
:1059F000E52FEE5FEA930E943D12E4E5FEE1FA93A3
:105A0000EA93E0E0EA930E94AA12E22FEE0FEE0F73
:105A1000E50FEF5FF0E0FA93EA93E1E0EA93E0E06C
:105A2000EA930E94BD12E0E2EA93E0E0EA930E946A
:105A30004212E22FEE0FEE0FE50F6E2FA7E2B8E055
:105A4000F0E0EE0FFF1FAE0FBF1F0D901C90AEE0F9
:105A5000B2E0E62FF0E0EE0FFF1FAE0FBF1F0E9477
:105A6000FF710E161F06B8F0E62FA7E2B8E0F0E0CF
:105A7000EE0FFF1FAE0FBF1F0D901C90AEE2B2E005
:105A8000E62FF0E0EE0FFF1FAE0FBF1F0E94FF7169
:105A9000E015F10508F457C0E22FEE0FEE0FE50F09
:105AA0006E2FA7E2B8E0F0E0EE0FFF1FAE0FBF1FB2
:105AB0000D901C90AEE0B2E0E62FF0E0EE0FFF1F7D
:105AC000AE0FBF1F0E94FF71D001AE1BBF0BAB8B8F
:105AD000BC8BAEE2B2E0E22FEE0FEE0FE50FF0E08E
